:020000040800F2
:10000000A8100020C1010008031E00088D1C000874
:10001000011E00081D030008333300080000000023
:10002000000000000000000000000000131E000897
:10003000A503000800000000111E0008151E00089E
:10004000DB010008DB010008DB010008DB01000820
:10005000DB010008DB010008DB010008DB01000810
:10006000DB010008DB010008DB010008DB01000800
:10007000DB010008DB010008DB010008DB010008F0
:10008000DB010008DB010008DB010008DB010008E0
:10009000DB010008DB010008DB010008DB010008D0
:1000A000DB010008DB010008DB010008DB010008C0
:1000B000DB010008DB010008DB010008DB010008B0
:1000C000DB010008DB010008DB010008DB010008A0
:1000D000DB010008DB010008DB010008DB01000890
:1000E000DB010008DB010008DB010008DB01000880
:1000F000DB010008DB010008DB010008DB01000870
:10010000DB010008DB010008DB010008DB0100085F
:10011000DB010008DB010008DB010008DB0100084F
:10012000DB010008DB010008DB010008DB0100083F
:10013000DB010008DB010008DB010008DB0100082F
:10014000DB010008DB010008DB010008051E0008D8
:10015000DB010008DB010008DB010008DB0100080F
:10016000DB010008DB010008DB010008DB010008FF
:10017000DB010008DB010008DB01000800000000D3
:10018000DB010008DB010008DB010008DB010008DF
:10019000DB010008DB010008DB010008DB010008CF
:1001A000DB010008DB010008DB010008DFF80CD0F0
:1001B00000F0A2F800480047993A0008A810002073
:1001C0000648804706480047FEE7FEE7FEE7FEE7F1
:1001D000FEE7FEE7FEE7FEE7FEE7FEE7A51E0008F6
:1001E000AD0100082DE9F05F0546002092469B46D0
:1001F00088460646814640241BE02846414647463D
:10020000224600F069F853465A46C01A914110D36D
:1002100011461846224600F050F82D1A67EB0108E7
:100220004F4622460120002100F047F817EB000955
:100230004E41201EA4F10104DFDC484631462A4627
:100240004346BDE8F09F40EA01039B0703D009E065
:1002500008C9121F08C0042AFAD203E011F8013BB2
:1002600000F8013B521EF9D27047D2B201E000F80B
:10027000012B491EFBD270470022F6E710B513464A
:100280000A4604461946FFF7F0FF204610BD30B578
:100290000B46014600202022012409E021FA02F544
:1002A0009D4205D303FA02F5491B04FA02F52844DE
:1002B000151EA2F10102F1DC30BD202A04DB203A38
:1002C00000FA02F1002070479140C2F1200320FAA9
:1002D00003F3194390407047202A04DB203A21FAA7
:1002E00002F00021704721FA02F3D040C2F120024F
:1002F0009140084319467047064C074D06E0E068F8
:1003000040F0010394E8070098471034AC42F6D35C
:10031000FFF750FF743D0008943D0008FEE7F0B57C
:1003200000234FF6FF724AF20104DDB28D4210D273
:1003300005786A400025072D08D884EA5206D707B9
:1003400005F1010508BF56083246F4E701330130D4
:10035000EBE71046F0BDB0B504464078851E204658
:10036000E9B2FFF7DCFF615B80B2401A18BF0120E1
:10037000B0BD0020704700207047000080B50648DF
:100380004022D0F818120548FFF75DFF04480188A5
:1003900040310180002080BD10040020D0030020E7
:1003A0000201002070477047E84A0329136823F4CC
:1003B000407313604FF4407338BF0B0211680B2871
:1003C00041EA03014FEAC0031160116821F0F8010E
:1003D00011604FF0200188BF01EBC0031068184383
:1003E00040F002001060106840F4803010607047E8
:1003F0001348016889050FD5016821F40071016077
:10040000016841F400610160016821F4006101604C
:10041000016841F400710160016849050FD5016868
:1004200021F480610160016841F48051016001683C
:1004300021F480510160016841F4806101607047DE
:10044000003C0240C14A0329136823F4407313603F
:1004500004D1116848F20403194306E01368012926
:1004600014BF43F4004143F004011160116841EAF4
:10047000002040F480301060704700BFB34A13681A
:1004800023F44073136013681360136843F001038F
:1004900013600170704700BF10B5AC490C6824F4BC
:1004A00040740C600C6844F440740C600C6844F0B8
:1004B00001040C600260BFF36F8F436010BD00BF8A
:1004C000A24A136823F440731360136843F48073E3
:1004D0001360136843F0010313600180704700BF8D
:1004E0009A4A136823F440731360136843F400734B
:1004F0001360136843F0010313600160704700BF8D
:1005000032480168C90606D58F49CA6942F010020F
:10051000CA61102101600168890606D58A49CA6945
:1005200042F00802CA61202101600168490606D52F
:100530008549CA6942F00402CA614021016001682C
:10054000090606D58049CA6942F00202CA618021C3
:1005500001600168C90507D57B49CA6942F00102FB
:10056000CA614FF4807101600168890706D5764938
:10057000CA6942F02002CA6102210160704700BFCF
:10058000F8B5044670480021104EC16100F0C6F96C
:100590000546671C3068C00309D5002FFAD024B186
:1005A00000F0BCF9401BA042F4D90320F8BD30682C
:1005B000C0071CBF01203060306810F4F97F03D001
:1005C000FFF79EFF0120F8BD0020F8BD0C3C024063
:1005D00080B509484FF0FF3100220161026141619D
:1005E000426101600260416042608160826000F0AF
:1005F000DDF9002080BD00BF10380240B0B50446D0
:1006000000F08CF90546E748611C007818BF0444E7
:1006100000F084F9401BA042FAD3B0BD2DE9F843A5
:10062000DFF82481054698F81800012801D1022638
:1006300040E00120894688F818004CF25030FFF75E
:100640009FFF064698BB4FF0FF30404CC9F80000B2
:10065000286801280ED16968287CFFF7F3FE4CF268
:100660005030FFF78DFF0646206848F204018843AA
:1006700020601AE0A8680746E9680844874210D25B
:10068000297C3846FFF790FE4CF25030FFF778FF98
:100690000646206820F0FA00206026B9A8680137D5
:1006A000EAE7002601E0C9F80070FFF7A1FE00208C
:1006B00088F818003046BDE8F88300BF2348016879
:1006C00041F0004101600020704700BF2DE9F0417A
:1006D000DFF87480074698F81800012804BF02204C
:1006E000BDE8F08101201E4614460D4688F818002A
:1006F0004CF25030FFF744FF08BB022F07D0012F08
:100700000AD077B9E1B22846FFF7B8FE0EE02846D6
:100710002146FFF7E5FE09E0A1B22846FFF7D0FE2B
:1007200004E0284622463346FFF7B6FE4CF250302E
:10073000FFF726FF05490A6822F001020A6000213E
:1007400088F81810BDE8F0817C0A0020103C0240B7
:100750000648C168B1F1FF3FC4BF0020704704499B
:10076000016004490160C068C00F7047043C02404A
:1007700023016745AB89EFCD2DE9FC4F5E4A0A2482
:100780004FF0010B4FF000084FF0000E90425B4A13
:1007900008BF092402444FEAB223092B38BF4FEAAD
:1007A000B22400220094BEF1200F08BFBDE8FC8FE8
:1007B0000F680BFA02F6374200F090804F68122F54
:1007C00000F292800BFA07F414F0061F00F08C8000
:1007D00003234FEA420A03FA0EF48368CD686FEAF6
:1007E000040CA34305FA0EF52B4383603B094568CF
:1007F0009340B5432B434360C4688D6804EA0C04FE
:1008000005FA0AF52C43C46047F01004122C12D1EB
:1008100008F01C040F2303FA04F56FF0030303EA46
:1008200052070744D7F820900B6929EA0505A34031
:100830002B433B624F68036807F0030404FA0AF491
:1008400003EA0C0323430360FB0047D500232E4C2F
:100850002B4F22F0030501932368BC463D4443F42B
:100860008043236023680F2403F48043019308F03E
:100870000C03019F9C40254FB946EF5927EA040419
:10088000009F07FA03F3234345F80930DCF80030F2
:100890004D6843EA0604EF0358BF23EA0604CCF888
:1008A0000040AF03DCF8043043EA060458BF23EAF3
:1008B0000604CCF80440EF02DCF80830114F43EA9C
:1008C000060458BF23EA0604CCF80840AD023B6892
:1008D00043EA060458BF23EA06043C6008F1040812
:1008E0000EF1020E01325EE70323F24603FA0EF424
:1008F0006FEA040C80E700BF002402400000FEBF46
:10090000003C01400C3C01404438024008FCFFFF21
:10091000002A08BF0904816170470000054800688B
:10092000704700BF1F48034900780A6810440860F8
:10093000704700BFA00A002080B50B48016841F451
:1009400000710160016841F480610160016841F457
:1009500080710160032000F083F8002000F006F8A9
:1009600000F026F8002080BD003C024070B50D4E1E
:1009700004464FF47A713078B1FBF0F00A49096807
:10098000B1FBF0F001F004F901250F2C08D838B9BB
:100990004FF0FF3021460022002500F045F874603A
:1009A000284670BD0C000020580000207047000051
:1009B00082B000200B4901904A6842F480424A60AC
:1009C0004A6802F480420192019A0090086840F05F
:1009D00080500860086800F080500090009802B0D5
:1009E000704700BF4038024000280CD400F01F01BF
:1009F0000122400902FA01F1034A42F82010BFF334
:100A00004F8FBFF36F8F704780E100E0002808D45C
:100A100000F01F010122400902FA01F1014A42F8E7
:100A20002010704700E100E070B5134B4FF0FF3528
:100A30001B68C3F30223DC1E83F0070338BF0024C6
:100A4000042B28BF042305FA04F605FA03F3B24386
:100A50009943A1401143BDE8704002F06BBC00BF58
:100A600005494FF6FF030A681A4060F30A2203485B
:100A700010430860704700BF0CED00E00000FA056D
:100A800070470068416200207047B0B50068436A53
:100A9000B1B1846A013903EB14430024E5B2A942E1
:100AA00007D900EB85050134D5F8045103EB154354
:100AB000F4E700EB810043EA0241C0F8041102E0D0
:100AC00043EA024181620020B0BD0000D0F8040476
:100AD000104901220A7001F0E2BC00BFC1EBC10263
:100AE00000EB8202D0F80404926C01F055BCC1EB1B
:100AF000C10200EB8202D0F80404D2F8082201F00F
:100B00009CBC0000D0F80404024900220A7001F0E5
:100B1000C8BC00BF9C0A002010B5044601F00F00BD
:100B20000906C0EBC00104EB81015DBF002281F822
:100B3000FD2101F5FE71012244BF81F83D203C31C9
:100B4000087094F8BC03012804BF022010BD0120E6
:100B500084F8BC03206802F025F8002084F8BC0368
:100B600010BDB0B5044601F00F006268904201D993
:100B7000012521E009064FF00005C0EBC00104EBA0
:100B800081015DBF002281F8FD2101F5FE71012286
:100B900044BF81F83D203C3108708D7094F8BC034F
:100BA000012801D1022507E0012084F8BC03206858
:100BB00002F0BEF984F8BC532846B0BDB0B5044677
:100BC00001F00F000906C0EBC00104EB81015DBF1D
:100BD000002581F8FD5101F5FE71012544BF81F822
:100BE0003D503C318A60CB7008704A7802B1C880B1
:100BF000022B04BF0020087194F8BC03012804BF35
:100C00000220B0BD012084F8BC03206801F028FF59
:100C1000002084F8BC03B0BDB0B501F00F04C4EBF4
:100C2000C40100EB81050021C5E9843185F8FD117F
:100C3000C5F8082285F8FC4105F5FE710369012B12
:100C400008BFC5F80C22DAB2006814B102F0A4F9AA
:100C500001E002F0CDF80020B0BDB0B50446406818
:100C600001F00F05854284BF0120B0BD080609D4FC
:100C7000C1EBC100002104EB800080F8FD1100F5FC
:100C8000FE7108E0C5EBC500012104EB800080F88F
:100C90003D1000F13C0194F8BC2301200D708870D8
:100CA000012A04BF0220B0BD84F8BC03206802F012
:100CB00057F92DB9217C206804F5717202F00CF906
:100CC000002084F8BC03B0BD70B501F00F0400260D
:100CD000C4EBC40100EB8105294601F83C4FC1E992
:100CE00005360123CA604B700369012B08BFEA6413
:100CF000DAB2006814B102F04FF901E002F078F8BE
:100D0000002070BD2DE9F04F87B0046806462046EC
:100D100002F022FA10B107B0BDE8F08F306802F09F
:100D200047FA0028F7D0306802F042FA01463068EE
:100D3000890703D5416901F00201416102F038FAE7
:100D40000146306806960394C9063ED5816921F0B4
:100D500010018161246AC4F3434004F00F050628A2
:100D60001CD002282BD147F6F070044027D0C5EBE9
:100D7000C500220906EB80050398D5F8081202F099
:100D80001BFAD5F80802D5F8141200EB1410C5F8B8
:100D9000080201EB1410C5F8140210E0039806F5E0
:100DA0007171082202F008FAC5EBC50006EB80005D
:100DB000D0F81412C4F30A121144C0F814123068A7
:100DC000816941F010018161039C02F0F1F9000397
:100DD00012D4DDF81890D9F8000002F0E9F94003C8
:100DE00000F1C480D9F8000002F0E2F9002800F117
:100DF0007481D9F800008BE1069C206802F0B7F9F5
:100E0000064604F5717004F5057A039C4FF000095D
:100E10004FF430680590002EDBD0F00700F09E8084
:100E200006985FFA89FB5946006802F0B9F907464F
:100E3000C0075AD004EB080001218160069C20689D
:100E400008EB0001036C8A682469012C22D1140785
:100E50002CD4940646D4039C12F0280F45D1D94DCA
:100E6000AB4202D312F4004227D15AE90423B8F569
:100E7000306F13444AF80C3C09696FF3DF41A2EB71
:100E80000101CAF8001028D10699D1F8101221BB2F
:100E900001211FE0CB4CFF34A34212D1039C10046C
:100EA0000BD4900644BF2020886016E0C548039C00
:100EB00083421AD312F4004017D04FF400408860E8
:100EC00013E0039CB8F5306F07D10699D1F81012E2
:100ED00019B90021059A01F0FFFF06985946FFF75E
:100EE00006FE02E020208860039C380723D504EB2F
:100EF0000800082181600698016808EB01000C6C6D
:100F000081680904AF49A1F1010504D5AC4284BF51
:100F10004FF400418160069800F0ECFAAC42039C6B
:100F200009D906980069012805D10698059A01217A
:100F3000006801F0D1FFF80642BF04EB0800102161
:100F40008160B80642BF04EB080020218160B8042C
:100F500042BF04EB08004FF4005181600AF11C0A03
:100F600008F12008760809F1010954E7D9F80000D2
:100F700002F0F6F8064609F571700023019004F5B9
:100F800010600490002E3FF42DAFF00700F0A28017
:100F9000DFB2D9F800000593394602F0EFF80546B4
:100FA000C00729D0059B0122D4F8341803F00F00A4
:100FB00002FA00F021EA0000C4F83408049800EBBB
:100FC00043108260D9F81000012811D1C3EBC3008F
:100FD00009EB8000D0E911121144816443B9D9F8BA
:100FE000500028B9D9F80000019A012101F074FFDE
:100FF00048463946FFF772FD059B280704D504983B
:10100000082100EB43108160E80604D50498102104
:1010100000EB43108160680604D50498402100EB82
:1010200043108160A80704D50498022100EB431007
:10103000816028064ED5C3EBC30009EB800AD34676
:101040005BF8500FD84658F8042F904242D3D9F895
:1010500000505AF8441F841A02968C4288BF0C46EE
:1010600005EB43110AF1040601F5106918E0069C2E
:10107000DAF800303168247C0094841A28463A4615
:101080009C4288BF1C46A3B202F042F9306820445B
:101090003060D8F800000219DBF80000C8F8002022
:1010A000D9F81830E11C9BB2B3EB910F28BF9042E6
:1010B000DDD8DDE90264DDE9053990420AD803F0A4
:1010C0000F00012101FA00F0D5F8341821EA0000E0
:1010D000C5F834087608013354E7D4F8040820F042
:1010E0000100C4F8040899F8F403012807D100208E
:1010F000002189F8F4034846FFF7C2FC02E04846A5
:1011000000F0DCF9D9F80000416901F000414161CB
:1011100002F04EF8000502D4D9F800000CE0D4F833
:101120000808C00702D0484600F00AFAD9F80000C3
:10113000416901F40061416102F03AF8C00402D44F
:10114000D9F800005DE0D4F80408102120F0010077
:10115000C4F80408D9F8000001F0E0FFD9F8042031
:1011600004F5106104F500604FF67F33CAB18B605F
:10117000013A0C6824F400140C600C6844F000641C
:101180000C60C1F80832D1F8004224F40014C1F810
:101190000042D1F8004244F00064C1F8004220311E
:1011A000E4E7C16941F00111C161D9F8301059B1CA
:1011B000D0F8841041F00B01C0F8841000F1440114
:1011C00009E000BF0B30544F416942F22B0211433A
:1011D000416100F110010A6842F00B020A6009F552
:1011E0007172016821F4FE610160D9F8000099F87C
:1011F000101001F071FED9F80000416901F480512E
:10120000416101F0D5FF0146D9F8000089041AD5E3
:1012100001F064FCD9F8000001F090FFD9F800500B
:10122000C9F80C0000F0D4FA99F80C2001462846C1
:1012300001F0F6FF484600F031F9D9F800004169A5
:1012400001F40051416101F0B3FF000702D4D9F865
:10125000000008E0484600F035F9D9F8000041697F
:1012600001F00801416101F0A3FFC00202D4D9F8E6
:10127000000009E04846002100F03AF8D9F80000E3
:10128000416901F48011416101F092FF800202D4B2
:10129000D9F8000009E04846002100F02DF8D9F8FF
:1012A0000000416901F40011416101F081FF40003B
:1012B00002D4D9F8000008E04846FFF707FCD9F847
:1012C0000000416901F08041416101F071FF400778
:1012D0007FF521ADD9F800004468610704D5484680
:1012E000FFF710FCD9F8000041682143416012E586
:1012F000D0F8040401F022B9D0F8040401F020B9B8
:101300002DE9F04F8BB0002800F087800446056877
:1013100090F8BD0328B9002084F8BC03204600F0F3
:101320008BF8032084F8BD03E86BC0055CBF002088
:101330002061206801F056FD206804F1140E04F1CC
:10134000040B04F1240A0A90D4E90C509EE8C05022
:101350009BE80E089AE80007CDE9085002A8CDE9FD
:1013600000B680E8805005A880E800070A9801F0E0
:10137000C5FB00284ED120680021002501F029FF7F
:10138000616801200022D3B2994210D9C3EBC30691
:1013900004EB860686F83C20A6F8423086F83D002D
:1013A0003565C6E9115586F83F500132EBE700205C
:1013B0000022D3B299420FD9C3EBC30304EB8303DA
:1013C000C3F81002C3E9810083F8FC2183F8FF0110
:1013D00083F8FD010132ECE7A06804F1140E04F17A
:1013E000240A22680A90D4E90C50D4E9033B9EE811
:1013F000C0509AE80007CDE9085002A8CDE900B630
:1014000080E8805005A880E8000710460A9A01F09D
:1014100023FC38B1022084F8BD03012528460BB017
:10142000BDE8F08F0025012084F8385084F8BD0312
:10143000206801F005FCF1E710B586B00068B0F156
:10144000A04F25D10A20002401A905900320039470
:101450000490022002904FF4C05001900D48FFF715
:101460008BF90D480022016841F080010160009471
:10147000016941F4804101610F21006900F480405D
:10148000009000984320FFF7CFFA4320FFF7BEFA01
:1014900006B010BD000002403438024010B50446CA
:1014A000D0F80404E168002918BF012101F09DF87B
:1014B000D4F80404BDE8104001F066B8D0F8040484
:1014C00001F081B8D0F8040401F083B810B50446E7
:1014D00090F8BC03012804BF022010BD84F8381026
:1014E000012084F8BC03206801F08AFE002084F803
:1014F000BC0310BDD0F8042400F57171104601F052
:1015000087B810B5044690F8BC03012804BF022038
:1015100010BD0121206884F8BC13A16A012906D1FD
:10152000A169012903D0816B41F48031816301F00D
:101530007BFB206801F0DEFD002084F8BC0310BDB9
:1015400010B50446D0F8040401F0AEF82068D0F8D5
:10155000001E41F00101C0F8001E206A20B10348BE
:10156000016841F00601016010BD00BF10ED00E010
:101570002DE9F041002860D0914B04468846D3F80D
:10158000000400F00F00884207D283F80084D3F8EB
:10159000000400F00F0040454FD12068810711D5AD
:1015A000410703D5996841F4E0519960010703D5DB
:1015B000996841F460419960A1689A6822F0F0024C
:1015C00011439960C00731D1D3F8000400F00F0037
:1015D000404507D983F80084D3F8000400F00F00D9
:1015E00040452AD12068410705D5E1689A6822F470
:1015F000E05211439960000706D52069996821F4EB
:10160000604141EAC00098601C4600F0FFF8A16804
:101610001D4AC1F30311515CC840794908606B4809
:101620000068FFF7A3F90020BDE8F0816068811E23
:10163000022905D21968890107D40120BDE8F0818B
:1016400001281DD119688903F7D599681D4621F035
:10165000030108439860FFF761F9064641F28837B5
:101660006068A9682B4601F00C01B1EB800FABD08C
:10167000FFF754F9801BB842F2D90320BDE8F0818E
:1016800019688907D9D5E0E75C3D00082DE9F041EC
:10169000FFF744F94A4F0446386840F001003860CB
:1016A0003868800705D4FFF739F9001B0228F7D9FD
:1016B00041E0386840F080003860FFF72FF90546B8
:1016C000002041F28838B860BE68FFF727F9044669
:1016D00016F00C0F03D0601B4045F5D92BE038689D
:1016E00020F45020386038688603FFF717F9054664
:1016F000002E03D5281B6428F5D91CE0386820F09B
:101700008070386038688401FFF708F90646002CBD
:1017100003D5701B0228F5D90DE0386820F08060F1
:10172000386038680501FFF7F9F80446002D05D543
:10173000A01B0228F5D90320BDE8F081386820F00D
:10174000805038603868800006D5FFF7E7F8011B45
:1017500003200229F6D930E01A48414978601A4836
:10176000C7F88400C7F88800F86820F4F850F860DB
:10177000F86820F40050F860F86820F48040F860C1
:10178000F86840F41F00F860F86840F40010F86052
:10179000F86840F48000F860786F20F00100786706
:1017A000786F40F0807078671548016007480068DE
:1017B000FFF7DCF8002818BF0120BDE8F08100BF6A
:1017C00000380240103000040030002410000020D7
:1017D0000B480068704700BF09480A490A4A006878
:1017E0000968C1F38221515CC8407047044805492B
:1017F000054A00680968C1F34231515CC84070472E
:1018000058000020083802406C3D000810B5134C09
:10181000606800F00C00082804D0042814BF1048A9
:10182000104810BD226820680023400202F03F02E9
:101830000C485CBF42F20040C0F2F4002168C1F3E2
:101840008811A0FB0101FEF7CDFC21680222C1F343
:10185000014102EB4101B0FBF1F010BD0438024040
:101860000024F40040787D012DE9FC4100285CD083
:1018700004460078C34EC0070BD0B06800F00C00DF
:10188000042840F08F803068800302D5606800280B
:101890004BD0207880071AD5B06810F00C0F09D013
:1018A000B06800F00C00082840F0A2807068400288
:1018B00000F19E803068800702D5E068012834D1AD
:1018C0002069316821F0F80141EAC00030602078D9
:1018D00000072DD4207840073ED4A76917B3B0681D
:1018E00000F00C00082840F0C380012F1DD0E169F2
:1018F000706800F480028A4217D1216A00F03F022A
:101900008A4212D147F6C071626A014091420CD1FD
:10191000A16A00F440328A4207D1E16A00F07060A7
:10192000884202D10020BDE8FC810120BDE8FC8195
:1019300061699548002900F089800121C0F8801E66
:10194000FEF7ECFF0546706F8007C3D4FEF7E6FF95
:10195000401B0228F7D988E0306C4FF00008C00027
:101960000CD4CDF804804FF00108306C40F080506A
:101970003064306C00F0805001900198834F3868DB
:10198000C00548D4386840F480703860FEF7C6FF60
:1019900005463868C0053ED4FEF7C0FF401B02284C
:1019A000F7D962E0B06800F00C00082803D1706835
:1019B00040023FF568AF6768B7F5803F07D03068F1
:1019C000B7F5A02F40F0A58040F48020306030684B
:1019D00040F480303060FEF7A1FF05463068800398
:1019E0003FF557AFFEF79AFF401B6428F6D93CE05D
:1019F000E06800285BD0644801210160FEF78EFF9B
:101A00000546306880073FF55BAFFEF787FF401B58
:101A10000228F6D929E0A768012F05D0306F052FDD
:101A200056D140F004003067306F40F0010030675D
:101A3000FEF774FF054641F28837306F80075FD4A8
:101A4000FEF76CFF401BB842F7D90EE00021C0F84A
:101A5000801EFEF763FF0546706F80077FF53AAF83
:101A6000FEF75CFF401B0228F6D90320BDE8FC818D
:101A70004549002088460866FEF750FF0546022FBC
:101A80000AD14746306880015CD5FEF747FF411B0D
:101A900003200229F6D946E7306880017FF542AF7E
:101AA000FEF73CFF411B03200229F5D93BE73648EE
:101AB00000210160FEF732FF0546306880077FF5A0
:101AC00006AFFEF72BFF411B03200229F5D92AE7B9
:101AD00020F001003067306F20F004003067FEF71F
:101AE0001DFF0546002FA6D141F28837306F8007D1
:101AF00006D5FEF713FF411B0320B942F6D912E7C2
:101B0000B8F1000F3FF4E9AE306C20F08050306443
:101B1000E3E620F480303060306820F480203060CC
:101B2000FEF7FCFE0546002F7FF458AF06E0FEF7F7
:101B3000F5FE411B032064293FF6F5AE30688003B3
:101B4000F5D4A6E61C341FCC0843D90340EA821022
:101B50004FF6FF72914340EA0460A1F580310843DB
:101B6000706001203866FEF7D9FE044630688001B7
:101B70003FF5D8AEFEF7D2FE011B03200229F5D9AE
:101B8000D1E600BF0038024000004742007000402C
:101B9000411E0020B0EB116F1CBF01207047084AA6
:101BA000F023516002490B7007219060116070476B
:101BB00023ED00E00248016821F002010160704756
:101BC00010E000E050B310B5044690F8390028B991
:101BD000002084F83800204600F022F8242084F801
:101BE00039002068C16821F40051C160204600F02E
:101BF00067F92068016921F490410161416921F090
:101C00002A014161C16841F40051C16000202021D6
:101C1000E06384F8391084F83A1010BD0120704751
:101C200010B586B0044601A81421FEF725FB2168F3
:101C30001548814225D100215F4A00F5704000918E
:101C4000536943F010035361536903F01003009389
:101C5000009B0091116841F001011160116801F0D1
:101C600001010091072105910321049101210391B4
:101C7000022102914FF4C0610191009901A9FEF780
:101C80007BFD06B010BD00BF00100140FEE7000064
:101C90002DE9F04F89B04FF0000A4748474C484EB5
:101CA00000224FF00809CDF820A0CDF80CA0016863
:101CB00004F5805541F010010160016801F0100148
:101CC00003910399CDF80CA0016841F080010160F7
:101CD000016801F0800103910399CDF80CA001681F
:101CE00041F001010160016801F0010103910399D4
:101CF000CDF80CA0016841F004010160016801F019
:101D0000040103910399CDF80CA0016841F0020190
:101D100001600821006800F0020003900398284643
:101D2000B0472046C0210022B04704F5006B2021B7
:101D300000225846B04704F58060022100220227A5
:101D40000190B04704F540604FF4805100220290AA
:101D5000B0474FF00108CDE9067A04AE2846CDE938
:101D60000498DFF860903146C847C020CDF81CA029
:101D7000CDE90587314604902046C8472020CDF89C
:101D80001CA0CDE90587314604905846C847019804
:101D90003146CDE9067ACDE90478C8474FF4805042
:101DA000CDF81CA0CDE90587314604900298C847BC
:101DB00009B0BDE8F08F00BF30380240000002409B
:101DC000110900087907000810B5094C09490022DB
:101DD000204600F0ACFA0849204600F08CFC074988
:101DE000204600F04DF92046BDE8104000F097BCB9
:101DF00010040020380000205C000020D8000020E3
:101E0000FEE770470148FEF77DBF00BF34060020A3
:101E100070477047FEF786BDB0B592B000241F48EA
:101E20000225CDE90A44CDE908440194016841F056
:101E300080510160006800F0805001900198019489
:101E40001748016841F440410160006800F44040D7
:101E5000019001981095072011904FF4A8700F90F1
:101E600019200E904FF48000CDE90C504FF48030D3
:101E700007900120069006A8FFF7F6FC4FF480506B
:101E8000052105904FF4A05004900F20CDE9025495
:101E9000019001A8FFF76CFB12B0B0BD40380240C2
:101EA000007000400548D0F8801041F47001C0F87F
:101EB00080104FF000610160704700BF08ED00E046
:101EC000B0B50446006804F108030ECB056925F49B
:101ED000405519432A4349F20C650261C26863699F
:101EE0001943E369AA431943B3F5004F41EA0201DC
:101EF000C1604169A26921F4407141EA0201416176
:101F0000254940F4806004D1884207D1FFF76EFC78
:101F100006E088421FD1FFF769FC1EE0FFF75CFC7A
:101F200063681921A0FB01015A00DB0FFEF75AF983
:101F300064216FF06303B0FBF1F202FB0300322374
:101F400003EBC000B0FBF1F14FF4F87000EA410080
:101F500001F0070119E0FFF73FFC63681921A0FBBE
:101F600001019A009B0FFEF73DF964216FF06303B6
:101F7000B0FBF1F202FB0300322303EB0010B0FBD5
:101F8000F1F101F0F00001F00F0100EB0210084345
:101F900021688860B0BD00BF00140140D0F818026D
:101FA000002180F8501000207047B0B5D0E986526B
:101FB000044628786978D2689047204601212A464D
:101FC000402300F0D1FA0020B0BD10B581210446B5
:101FD00000F0D2F92046012100F0CEF9D4F8180221
:101FE00050B1D4F81C0280688047D4F8180201F080
:101FF00045FE0020C4F81802002010BD10B5D0F82E
:102000001842E16C012908D1D0F81C0222786178CD
:10201000C368104698470020E064002010BD00000F
:102020002921018000487047940000200A21018086
:1020300000487047CC00002070B581210322402366
:10204000044600F07FFA20460121032240230125A7
:1020500000F078FA542001F039FEC4F8180268B193
:102060000025064680F85050D4F81C02406880478E
:10207000204601213246402300F076FA284670BD02
:1020800019B1C0F81C12002070470220704710B52B
:1020900013460A4690F8FC1103290AD1D0F8181209
:1020A00091F850402CB9012481F85040812100F072
:1020B00005FB002010BD000010B50A78D0F81832DA
:1020C00012F060020FD0202A2CD14A78023A092A55
:1020D0002AD8DFE802F0052229292929292D3437B9
:1020E00003F144011BE04A780B2A10D00A2A11D0D0
:1020F000062A17D1CA78212A27D0222A2BD1CA88AA
:10210000222A28BF2222D0F81C12096808E0887809
:10211000986407E003F1480101E003F14001012266
:1021200000F058F8002010BD00F031F8022010BD7A
:102130000122DA648A79194600F034F8F2E7C878A7
:102140005864EFE788781864ECE7CA880349092ADD
:1021500028BF0922E4E700220021E1E7C0000020B7
:1021600080B5D0F8142252689047002080BD80B519
:1021700013460A46002100F0F7F9002080BD80B523
:1021800013460A46002100F099FA002080BD10B5E0
:102190008021044600F068FA20460021BDE8104086
:1021A00000F062BA80B513460A460321C0E9423303
:1021B000C0F8F411002100F0D7F9002080BD80B5EF
:1021C000052100220023C0F8F411002100F0CCF911
:1021D000002080BD80B513460A460221C0E90633BF
:1021E000C0F8F411002100F069FA002080BD80B52C
:1021F000042100220023C0F8F411002100F05EFA4F
:10220000002080BD10B5394C0A4603A0214600F0DD
:102210006FF8204610BD00BF437573746F6D204882
:10222000494420436F6E66696700000012200880F1
:1022300000487047E800002010B52C4C0A4603A067
:10224000214600F055F8204610BD00BF4375737459
:102250006F6D2048494420496E74657266616365FC
:10226000000000000420088000487047FC000020A7
:1022700010B51E4C0A4603A0214600F039F820464E
:1022800010BD00BF526F626F4B654A6900000000CD
:1022900010B5164C0A4603A0214600F029F8204646
:1022A00010BD00BF424C41434B2D4354524C204380
:1022B0007573746F6D2048756D616E20696E7465FD
:1022C000726661636500000010B5084C0A4603A001
:1022D000214600F00DF8204610BD00BF30303030F0
:1022E000303030303030314100000000D00100206B
:1022F000B0B5D8B100230446257815B101340133B7
:10230000FAE7DCB2022303EB440414800C700322CE
:1023100001240A5502784AB1DCB29D1C01300A55ED
:1023200043F001022B46D4B20022F2E7B0BD88B1DF
:1023300080B5D0F8143213B10023C0F8143209B1BB
:10234000C0F810120121027080F8FC1100F0B4F8FE
:10235000002080BD0220704780B5D0F82002FEF733
:1023600000FC03288FBF0220C000DC4921FA00F0E6
:1023700098BFC0B280BD00BF80B5D0F82002FEF784
:10238000CBFB03288FBF0220C000D44921FA00F004
:1023900098BFC0B280BD00BFB0B5044659B1D4F8F3
:1023A00014024269002A46D094F8FC01032842D165
:1023B000204690473FE0D4F8F401022834D1D4E914
:1023C0000710814208D9081A114683B2E0612046FD
:1023D0001A46FFF7D4FE13E0A169814217D3B1FB7F
:1023E000F0F202FB101090B9D4F8F80181420ED23D
:1023F0002046002100220025FFF7C1FEC4F8F85155
:10240000204600210022002300F0AEF80CE0D4F8B2
:102410001402C16829B194F8FC01032801D12046B7
:1024200088472046FFF7CBFE94F80002012804BF3E
:10243000002084F800020020B0BD10B5044651B160
:10244000D4F81402826942B394F8FC01032824D121
:102450002046904721E0D4F8F40103281DD1D4E9A7
:10246000431081420CD9091AC4F80C11814238BFBB
:10247000084683B2114620461A46FFF778FE0CE064
:10248000D4F81402016929B194F8FC01032801D1A0
:10249000204688472046FFF7AAFE002010BD0020F6
:1024A000704780B5D0F81422012180F8FC11017921
:1024B00052689047002080BD10B5017849BB16498D
:1024C0000222C0F82012C1F804040020C1E90B0068
:1024D000C1E90320C1E90502C1E9070048620420FF
:1024E0004FF0A042C1E900200846FEF709FF08B1FD
:1024F000FDF759FF084C80212046FEF7C2FA20461E
:1025000000214022FEF7C1FA204601218022FEF779
:10251000BCFA002010BD00BF3406002001F07F028D
:10252000D0F820020906C2EBC20200EB820000F1E3
:102530003E0258BF00F5FF721078704700207047C8
:102540000020704710B51446D0F820021A462346E2
:10255000FEF734FB03288FBF0220C0005F4921FA39
:1025600000F098BFC0B210BD80B5D0F82002FEF7D1
:1025700053FB03288FBF0220C000584921FA00F006
:1025800098BFC0B280BD00BFB0B50021002240237B
:1025900004464025FFF7D6FF204680210022402335
:1025A000C4F81051FFF7CEFF0120256284F8FC012A
:1025B000D4F8180228B1D4F81402217942682046D0
:1025C00090470020B0BD90F8FD1180F8FC1100206C
:1025D000704780B590F8FC11032904D1D0F814128B
:1025E000C96901B18847002080BD0174002070478F
:1025F00080B5D0F82002FEF769FF03288FBF0220C4
:10260000C000364921FA00F098BFC0B280BD00BFBB
:10261000B0B500F502750446284600F061F8B4F83C
:102620000E120120C4E97D0194F8080200F01F0198
:10263000022907D001290AD071B92046294600F0A5
:1026400073F80EE02046294600F084F909E02046A0
:10265000294600F0E8F904E000F08001204600F08F
:1026600003F80020B0BD000080B5D0F82002FEF7CE
:10267000F4FA03288FBF0220C000184921FA00F0A5
:1026800098BFC0B280BD00BF80B5D0F82002FEF771
:1026900038FF03288FBF0220C000104921FA00F044
:1026A00098BFC0B280BD00BF90F8FC1180F8FD114A
:1026B000042180F8FC1100207047000080B5D0F89C
:1026C0002002FEF701FB03288FBF0220C000034950
:1026D00021FA00F098BFC0B280BD00BF0002010225
:1026E0000A7802704A7842704A8842808A888280DA
:1026F000C988C180704719B1C0F814120020704712
:102700000220704780B5D0F8142232B11268904789
:10271000002818BF0120400080BD022080BD80B588
:10272000FFF7B2FF002080BDBCB5044648780928F9
:1027300000F2C6800D46DFE800F00518C325C35A35
:1027400078C3364694F8FC0100F0FE00022840F001
:10275000B780D4F8040203222146002808BF0122D2
:1027600041F80C2F20460222D5E094F8FC0100F03D
:10277000FE00022840F0A4806888012840F0A38071
:10278000002004E06888012840F09D800120C4F802
:1027900004022946D4F81402826820469047204655
:1027A000FFF725FD8FE0E888012840F0898094F844
:1027B000FC0103284FD0022840F0828000202146EF
:1027C00041F8080F48E06888614DC1B228700229BD
:1027D00080F0768094F8FC01032840D0022840F075
:1027E0006F800029DBD0032084F8FC0142E0A88838
:1027F000002840F06580E888002861D194F8FC0149
:1028000003285DD0A87800F07F052046294684F88B
:10281000FE51FFF7EDFE2046FFF7E9FC002D0CBF4F
:102820000120022084F8FC014DE068884FF0FF3160
:1028300001EB1021062943D8DFE801F004312442DE
:1028400042374000D4F81012207C0A680DF10601CE
:102850009047014652E0211D204601225BE00029FD
:1028600033D0606888423FF49AAFC1B22046FFF788
:1028700077FC297820466160FFF744FF02287FF447
:102880008EAF1DE0C0B205281AD8DFE800F003477C
:102890004C51565BD4F81012207C4A68D6E7217C54
:1028A000D4F81402D1B1C16A19E0207C40B9D4F83F
:1028B0001402416B0DF106008847CAE7207CA0B1E5
:1028C0002046FFF764FC0020BCBD002060600220B1
:1028D00084F8FC012046FFF743FC60E7816A0DF1B4
:1028E000060088470146022007E0D4F81402016B75
:1028F0000DF106008847014607204870BDF8060024
:102900000028E0D0EA88002ADDD0904238BF024695
:10291000ADF806202046FFF75DFCD4E7D4F810128E
:10292000207C8A6892E7D4F81012207CCA688DE770
:10293000D4F81012207C0A6988E7D4F81012207CA1
:102940004A6983E7D4F81012207C8A697EE700BFC9
:10295000CC010020B0B5044608780D4600F06000B8
:10296000202807D1D4F814022946826820469047CF
:102970000020B0BD6878297988B1012818D00328D3
:10298000F6D194F8FC01032816D1688850BB41F0B9
:102990008000802826D02046FFF766FE22E094F8CB
:1029A000FC01032828D0022810D148060AD1DFE70D
:1029B00094F8FC0103280DD0022807D141F08000D3
:1029C0008028D5D02046FFF74FFED1E72046FFF7FD
:1029D000DEFBCDE768880028CAD1480608D020462B
:1029E000FFF7BAFCD4F814022946826820469047C3
:1029F0002046FFF7FCFBBBE701F07F000A0604EB73
:102A0000001000F1140558BF00F582752046FFF74D
:102A100085FD002818BF0120286029460222204693
:102A2000FFF7D8FBA4E7B0B5044690F8FC010328F3
:102A300004D188880D4610F0FE0F04D02046FFF721
:102A4000A6FB0020B0BDD4F81402294682682046B7
:102A50009047E8880028F4D12046FFF7C8FBF0E74C
:102A6000B0B50A784C78012502F00F03012C05FA65
:102A700003F318D1D0F81C482343C0F81C38530185
:102A800000F51060C458240424D41C588D68C978FB
:102A90006FF3DF2545EA8252224342EA81410E4A22
:102AA0001143195016E0D0F81C48520144EA034380
:102AB000C0F81C3800F5306083581B040AD4135842
:102AC0008C68C9786FF3DF24234343EA8141024BCA
:102AD000194311500020B0BD00800010D0F800193B
:102AE00040F2FF729143C0F80019D0F8041841F485
:102AF0008071C0F8041800207047000070B50446CB
:102B00000698049D012817D1A16B194A0D9821F44C
:102B100080310128A163E16801EA0201E160E16816
:102B200021F44011E16003D1E06840F48010E060DE
:102B3000204600F01FF80FE0E0680A9E40F04000D9
:102B4000E060204600F016F8A16B16B121F4803148
:102B500001E041F48031A163012D07D1A16841F06A
:102B60000601A160A16841F02001A16070BD00BF15
:102B7000BFFFBDFF0A490A46013A0FD00369B3F10E
:102B8000FF3FF9DC026942F001020261013905D020
:102B90000269D20704BF00207047F7E7032070479F
:102BA000410D030010B50A784B781E4900EB421422
:102BB000012B10D104F51063D4F80049B4F1FF3FA4
:102BC00007DC1C6844F000641C601C6844F080440E
:102BD0001C60012412E004F53063D4F8004B01F1CD
:102BE0007071B4F1FF3F07DC1C6844F000641C60A6
:102BF0001C6844F080441C604FF4803402F00F02E3
:102C000004FA02F2D0F83C489443C0F83C48D0F8AB
:102C10001C4824EA0202C0F81C2818680840186002
:102C2000002010BD007833EC80B5D0F8041821F0F6
:102C30000201C0F804180320FDF7E0FC002080BD6D
:102C400080B5D0F8041841F00201C0F80418032040
:102C5000FDF7D4FC002080BD2DE9F84F8046119C83
:102C6000DDE90C09DDF828A00D464121002250299C
:102C700003D048F821200131F9E754B1D8F83810D1
:102C800021F40011C8F83810D8F8381041F40021A8
:102C900015E0D8F8041841F00201C8F80418D8F873
:102CA000381041F40011C8F83810D8F8381021F461
:102CB0000021C8F83810D8F8381021F48021C8F85D
:102CC0003810002108F5006B0128C8F8001EDBF859
:102CD0000010CBF8001006D1DBF80000002B18BF65
:102CE00040F0010003E0DBF8000040F00300CBF807
:102CF00000004046102100F011FA0646404600F060
:102D0000FFF90021304308F510624FF67F330026AB
:102D1000CBF81010CBF81410CBF81C10B5420FD024
:102D20004FF09047002E06F1010608BF4FF00067F4
:102D3000146807EAE4741460116193602032EDE7CF
:102D400008F5306100224FF67F330026002818BFB7
:102D50000120B5420FD04FF09044002E06F101063D
:102D600008BF4FF000640F6804EAE7740C600A6162
:102D70008B602031EDE7DBF81010BAF1000F21F481
:102D80008071CBF810104FF00001C8F818106FF0E8
:102D90008041C8F8141005D1D8F8181041F010017E
:102DA000C8F81810D8F818100C4AB9F1000F41EA09
:102DB0000201119AC8F8181005D0D8F8181041F07F
:102DC0000801C8F81810012A05D1D8F81810044ACB
:102DD0001143C8F81810BDE8F88F00BF00383C80D8
:102DE00004000040816821F00101816000207047EB
:102DF000F0B54B7891F800E0012B1DD100EB4E139C
:102E0000334F344CD3F810694D6903F51063C5B3E3
:102E100026401E611E693E401E618E68B54284BF19
:102E20004E6135461E6946F400261E6107F10056C4
:102E30001F692E403E432FE000EB4E10244CD0F88B
:102E4000103B6FF31203C0F8103BD0F8103B6FF348
:102E5000DC43C0F8103B00F530634D69886805B16C
:102E600048611D6904F10054012A00EA040045F498
:102E700000251D611C6940EA0400186112D1C86870
:102E80000EE006EA07051D611D6945F400251D6178
:102E90001D6905EA04060025012A1E6109D1086999
:102EA00000B158614FF004411868084318600020D1
:102EB000F0BD1968002D41F004411960F7D00EF003
:102EC0000F01012200F6340302FA01F1ECE700BF22
:102ED000FFFF07E00000F8FF10B5036C134CA3429E
:102EE00003D3D0F8003B002B1ED400230129C0F8E7
:102EF000103BD0F8103B43F40023C0F8103BD0F84F
:102F0000103B43F01803C0F8103BD0F8103B43F0DF
:102F1000C043C0F8103B07D1C0F8142BD0F8001BF9
:102F200041F08021C0F8001B002010BD0B30544F31
:102F30000A784B785201012B14BF00F5306000F580
:102F40001060835823F400138350C97801F0FE0108
:102F5000022903D1115841F08051115000207047CF
:102F60000A78497800EB4210012919BFD0F8001BFC
:102F700000F53060D0F8001900F510602AB1002982
:102F800003D4016821F080410160016841F400111F
:102F90000160002070470000F8B54B780C78012BD9
:102FA0002BD100EB4413D3F810694D6903F510637E
:102FB000002D44D06FF312061E611E696FF3DC46CC
:102FC0001E618E68AF19013FB7FBF6F6484F07EA5E
:102FD000C6461F693E431E612E461F696FF3DF46DA
:102FE0003E431E61CE78012E34D11E6926F0C046C4
:102FF0001E611E6946F000562BE000EB4413D3F827
:10300000104B6FF31204C3F8104BD3F8104B6FF34F
:10301000DC44C3F8104B03F530634D698C68B5B3DD
:103020002544334E1F69013DB5FBF4F506EAC5465C
:10303000ADB26C433E436FF3DF441E612EE06FF38D
:10304000DC461E611E6946F400261E611E696FF390
:1030500012061E61012A01D10A6926E01E6846F0A7
:1030600004461E60CE78012E35D1D0F80868F605EA
:103070004FF0805658BF4FF000561F683E431E6009
:10308000ABB2C9680092224600F042F921E01D6906
:103090006FF3DF442C431C614FF400241D69012AA7
:1030A00044EA05041C6102D1CA6802B15A61C978B8
:1030B00001290AD1D0F80808C0054FF0805058BF48
:1030C0004FF00050196808431860186840F0044039
:1030D00018600020F8BD002DFBD004F00F01012284
:1030E00002FA01F1D0F834281143C0F83418F0E79F
:1030F0000000F81F816841F00101816000207047E5
:10310000102101610C49013904BF03207047026995
:10311000D2065CBF00207047F5E700BF890120316F
:1031200001610549013904BF032070470269920615
:103130005CBF00207047F5E7410D0300D0F8080898
:1031400000F006010F2041F00402062A08BF022009
:10315000002908BF08467047406900F00100704729
:10316000D0F81818D0F81C08084080B27047D0F882
:103170001818D0F81C080840000C704710B5D0F89B
:103180001028D0F8344801F00F0300EB4110D0F8BC
:10319000080924FA03F3DB01DBB21A43104010BD27
:1031A00000EB4111D1F8081BD0F814080840704713
:1031B000416980690840704710B503324FF480536D
:1031C000920822B1C458013A41F8044BF9E7084685
:1031D00010BD80B5C268012922F0C042C26003D090
:1031E00061B94FF0804101E04FF00051C2681143D6
:1031F000C1603220FDF702FA002080BD012080BDB1
:10320000D0F8002801F07F0122F4FE62C0F8002807
:10321000D0F8002842EA0111C0F8001800207047D9
:10322000022A34D1284A294B0A449A4202D24FF446
:1032300070512EE0264A274B0A449A4202D24FF49C
:10324000605126E0244A254B0A449A4202D24FF4A8
:1032500050511EE0224A234B0A449A4202D24FF4B4
:10326000405116E0204A214B0A449A4202D24FF4C0
:1032700030510EE01E4A1F4B0A449A4202D24FF4CC
:10328000205106E01C4A1D4B0A449A420AD24FF4D0
:103290001051C26822F47052C260C2681143C1600A
:1032A00000207047164A174B0A449A4202D24FF444
:1032B0000051EEE7144A154B0A444FF4C0519A42AC
:1032C00038BF4FF4E051E4E7405327FF00350C00CE
:1032D000401E1BFF40420F0000DC0BFF804F12001E
:1032E000808CF9FE20D6130060B6E5FE60E3160080
:1032F00000D3CEFE40771B00C05BB3FEC09121001F
:1033000000CA91FE20753800E05459FEE09C41004F
:1033100010B5029C0CB1002010BD0333120300F560
:1033200080509B08002BF6D051F8044B013B145001
:10333000F8E7FEE710B5074C00F00F03044AB0F1C0
:10334000FF3F2344C8BF83180801187010BD00BF99
:1033500000E400E014ED00E00146214881423CBF5A
:103360000020704700F5804291423CBF0120704729
:1033700000F5004291423CBF0220704700F54042F8
:1033800091423CBF0320704700F5E03291423CBFC0
:103390000420704700F5703291423CBF0520704711
:1033A00000F5B82291423CBF0620704700F5F82294
:1033B00091423CBF0720704700F51C2291423CBF60
:1033C0000820704700F53C2291423CBF092070471D
:1033D00000F55C220B20914238BF0A20704700BFE5
:1033E000004000080068704704490A681206FCD5CE
:1033F00048600A685206FCD5704700BF00100140C3
:103400002DE9F04786B01A4C4FF00008CDF8008047
:1034100004EB8007FDF79CF94FF002094FF0010A19
:1034200001AD6E46BC4219D22046FFF7DBFF0130EA
:103430000ED02046CDF80480FFF78EFFCDF8149013
:10344000CDE9030A28463146FDF7E8F808B105E062
:1034500004344CF25030FDF793F8E3E74CF250306F
:10346000FDF78EF8FDF72AF906B0BDE8F08700BF3A
:103470000000010870B5B1F1006F14D305460C4689
:1034800011F003000FD104EB8206FDF761F9B4429D
:103490000AD22A68022021460023FDF717F918B93D
:1034A00004350434F3E770BDBDE87040FDF706B99C
:1034B000B0B0FEF789FC4FF4FA70FDF79FF80FF2F9
:1034C000345000F039FC0DF1800BDFF83CA5E14EE3
:1034D000E14DDFF830754FF0000800240BF10400D7
:1034E00000900AF1180001900020029097F8FC016A
:1034F000A14603281ED0FDF76BF8FEF7C7F8FEF7CC
:1035000059FB4FF0FF30FDF76FFA30682840B0F1FB
:10351000805F06D0316805F180500840B0F1005F4F
:1035200008D17068CAF81400306880F30888DAF8A7
:1035300014008047BAF80200402850D3BAF80610A9
:103540004022AAF802800844DFF8F014AAF8060026
:103550005846FCF778FE9DF88000CC2800F0A38048
:10356000AA2800F0F38022284C46BFD15846FCF729
:10357000F2FE00284C46B9D130682840B0F1805F97
:1035800007D0316805F180500840B0F1005F40F08D
:103590004F81554640F23360042125F8180FBDF8DD
:1035A000820068802846FCF7BAFEA8803846294683
:1035B0004022FEF76CFD6420FDF720F8FDF708F8C7
:1035C000FEF764F8FEF7F6FA4FF0FF30FDF70CFA5D
:1035D000706845F8040C306880F308885DE09AF85C
:1035E00000004C4600283FF481AFDAF80C00A8B187
:1035F0004FF0FF30FDF7F8F94320FDF7F5F9DAE970
:103600000321DFF80804FFF735FF4FF0FF30FDF727
:10361000FDF94320FDF7FAF9CAF80C80306828401C
:10362000B0F1805F07D0316805F180500840B0F1FB
:10363000005F40F0AE810220FCF7E0FF0AF11C00C1
:103640003C21FCF719FE554640F2FF60042145F885
:10365000180F2846FCF763FEAAF81C0038462946D6
:103660004022FEF714FD0A20FCF7C8FF0FF2BC3021
:1036700000F062FBFCF7ACFFFEF708F8FEF79AFAE1
:103680004320FDF7B1F94FF0FF30FDF7ADF9706859
:1036900045F8040C306880F3088855F8040CD84DC0
:1036A00080474C4622E70024B9F1000F3FF41EAFDB
:1036B000019859464022FCF7C6FD5846FCF74BFEE0
:1036C00000284C467FF412AFD74B9DF882509DF8EE
:1036D000830045EA0020B3F9001082B2521A012A91
:1036E00040F0AB8004B2E80703A81C8018BF3A3052
:1036F0009DF88110A1F1060B00995A46FCF7A3FD35
:10370000DDF80880012CD844C0F29B8015F0010040
:1037100000F09780DFF810C31FFA88F0BE46002142
:103720000DF1800B4FF0000803AD814280F09680D0
:10373000DAE902346A583746B44E043146F8242098
:10374000621C01333E46CAE90232EEE70120FCF773
:1037500055FF5846FCF7FFFD002400287FF4C6AE55
:103760009DF882409DF8835044F2352144EA0520BB
:103770008842AAF8040008D30020402846D00AEB6B
:103780000001013081F81880F7E7B6A000F0D4FA04
:10379000BAF804004FF03A0900FB09F1B4A000F0B8
:1037A000A3F9BAF8040000FB09F08008FFF728FE2F
:1037B000B3A000F0C1FA9C494FF6FF708AF81B5085
:1037C00055464FF000098AF81A40CAF810608AF886
:1037D0000090088040F2BB60042125F8180F2846AD
:1037E000FCF79DFDAAF81C0000207421CAF808907F
:1037F000CAF80C90029003A8FCF73EFD3846294613
:103800004022FEF744FC7E4D01246FE6554640F20F
:103810001160042145F8180F2846FCF780FDA880A8
:10382000384629464022FEF732FC754D00245DE6FD
:1038300096A000F081FA4C4658E681A000F054F9B9
:10384000A4E0BAF80400CDF80880C1072DD1DFF854
:10385000D8C130E0000001080000F01FDAF80C00C9
:103860000021774602911D2858D3FDF757F84FF0F5
:10387000FF30FDF7B9F84320FDF7B6F8DAE9032188
:103880006248FFF7F7FD4FF0FF30FDF7BFF8432028
:10389000FDF7BCF80020DFF890C1CAF80C00DAF898
:1038A00010007430CAF8100038E00138DFF878C131
:1038B000A04203AC04DD0DF1800B4FF000082DE0B9
:1038C000002058450BD2DAE9022321584F4D04302D
:1038D00045F82310591C0132CAE90221F1E74FF0E3
:1038E000FF30FDF781F84320FDF77EF8DAE9032188
:1038F0004648FFF7BFFD4FF0FF30FDF787F8432044
:10390000FDF784F8DAE90301DFF81CC14FF0000885
:103910000DF1800B01EB8000CAE90380BAF80410B6
:10392000BCF9000055460139814211DDDD2005F862
:10393000180F6C78A01EC1B22846FCF7F0FC611984
:1039400001F8020C000A6978294401F8010C1DE015
:103950009AF81940EE2005F8180FA01EC1B22846AB
:10396000FCF7DDFC6119402201F8020C000A9AF80C
:103970001910294401F8010C38462946FEF787FB47
:1039800001208AF8000034A000F0D6F91C4D4C4606
:10399000ACE51FA000F0D0F923494FF6FF700024DA
:1039A000CAF80840AAF80440088018487421FCF7B7
:1039B00063FC03A87421FCF75FFC0220FCF71EFEE9
:1039C0000AF11C003C21FCF757FC554640F21160FF
:1039D000042145F8180F2846FCF7A1FCAAF81C00A2
:1039E00029463846064D4022FEF751FB0A20FCF7D7
:1039F00005FE79E5626F6F7420696E69740D0000D1
:103A00000000F01F100400200001002058010020D9
:103A1000B7A2CBCDB4EDCEF3D0C5CFA2B8F8C9CF05
:103A2000CEBBBBFAC1CB0D0054000020D7BCB1B84F
:103A3000BDF8C8EB4150500D00000000D00300203D
:103A4000BDD3CAD5B0FCB2BBCAC7C1ACD0F8B5C4EF
:103A50002C2025640D0A0000CAC7D7EEBAF3D2BBEA
:103A6000B0FC0D00B2C1B3FDC9C8C7F80D0000001D
:103A7000B9CCBCFEB4F3D0A13A25640D0A00000015
:103A8000B2C1B3FDCDEAB3C90D0000004E554C4C98
:103A9000204150500D000000FCF74EFFFEF7BCF92E
:103AA000FEF7F6F800F004F8FFF702FDFEE700006D
:103AB00010B50B480B4C4FF4E12300210C22C0E958
:103AC0000043C0E90211C0E90412C0E90611FEF783
:103AD00079F818B1BDE81040FCF765BC10BD00BF17
:103AE0003C0A0020001001400FB4054B10B503A99B
:103AF000044A029800F018F810BC5DF814FB0000AE
:103B0000E93300080000002002E008C8121F08C1C5
:103B1000002AFAD170477047002001E001C1121F4E
:103B2000002AFBD1704700002DE9FF4F89B09B466A
:103B30000446002506E025280BD05A460B999047ED
:103B4000641C6D1C20780028F5D10DB02846BDE816
:103B5000F08F0027B8460122474900E0074314F8D8
:103B6000013F203B02FA03F00842F7D120782E28CB
:103B700019D114F8010F47F004072A280ED06FF06E
:103B80002F022078A0F1300109290CD808EB880118
:103B900002EB410100EB0108641CF2E70A98641C87
:103BA00050F8048B0A9020780028CED0642808D0E2
:103BB000692806D075281ED05A460B9990476D1C6F
:103BC00058E00A994FF00A0901C90A91002802DA5F
:103BD00040422D2102E0390504D52B218DF820101B
:103BE000012103E0F90704D02021F7E78A4608AE57
:103BF0000DE00021FAE70A994FF00A0901C90A917C
:103C0000F7E74946FCF743FB303106F8011D002871
:103C1000F7D1ADEB060000F12009780701D44FF091
:103C20000108C84502DDA8EB090000E0002080463D
:103C3000002706E008A85A46C05D0B9990476D1C06
:103C40007F1C5745F6DB04E030205A460B9990471D
:103C50006D1CB8F10001A8F10108F5DC05E016F8CB
:103C6000010B5A460B9990476D1CB9F10001A9F15F
:103C70000109F4DC641C65E70928010010B500287F
:103C800021D0114B0022001F196803E0814203D8A4
:103C90000A4649680029F9D152B11368841A9C4236
:103CA00004D1006818441060104602E0506000E043
:103CB000186039B102680B1A934203D10B681A4499
:103CC00002604968416010BD04000020F0B50B306F
:103CD000154D20F007010024144A0FE003688B42C1
:103CE0000BD38B4205D95E1A43184768C3E90067B6
:103CF00000E04368136002C004E0021D1068002861
:103D0000ECD12046002802D1286808B10020F0BD7F
:103D1000064A07481060074A121A22F00702C0E953
:103D2000002401202860D7E70800002004000020BC
:103D3000AC0A0020A80C002010B5044601E0FFF7F3
:103D400053FB14F8010B04490028F8D1BDE81040DA
:103D50000A20FFF749BB000000000020000000001F
:103D6000000000000102030406070809000000002B
:103D700001020304983D000800000020000100003B
:103D8000083B0008983E000800010020A80F000032
:103D9000183B0008000000000000000000000000C8
:103DA0000000000001000000100000000600FF09F4
:103DB00001A1010901150026FF0095407508810247
:103DC0000901150026FF00954075089102C000000A
:103DD0002D220008652200087122000891220008A7
:103DE000C92200080522000839220008FFFF000050
:103DF0000024F40039200008CB1F0008B920000877
:103E000000000000FD1F00089D1F0008AB1F0008F8
:103E10000000000000000000000000002120000859
:103E200021200008212000082D2000080902290077
:103E3000010100C032090400000203000000092152
:103E4000110100012222000705810340000107053E
:103E5000010340000100000009211101000122229C
:103E6000000000000A0600020000004001000000FF
:103E70001400002077030008730300087D03000886
:103E800012010002000000408304505700020102AA
:083E9000030100000403090412
:04000005080001AD41
:00000001FF
