:020000040800F2
:10000000A8100020C10100081F1F0008B11D000832
:100010001D1F000873030008AF3500080000000032
:100020000000000000000000000000002F1F00087A
:100030000D040008000000002D1F0008311F0008FB
:10004000DB010008DB010008DB010008DB01000820
:10005000DB010008DB010008DB010008DB01000810
:10006000DB010008DB010008DB010008DB01000800
:10007000DB010008DB010008DB010008DB010008F0
:10008000DB010008DB010008DB010008DB010008E0
:10009000DB010008DB010008DB010008DB010008D0
:1000A000DB010008DB010008DB010008DB010008C0
:1000B000DB010008DB010008DB010008DB010008B0
:1000C000DB010008DB010008DB010008DB010008A0
:1000D000DB010008DB010008DB010008DB01000890
:1000E000DB010008DB010008DB010008DB01000880
:1000F000DB010008DB010008DB010008DB01000870
:10010000DB010008DB010008DB010008DB0100085F
:10011000DB010008DB010008DB010008DB0100084F
:10012000DB010008DB010008DB010008DB0100083F
:10013000DB010008DB010008DB010008DB0100082F
:10014000DB010008DB010008DB010008211F0008BB
:10015000DB010008DB010008DB010008DB0100080F
:10016000DB010008DB010008DB010008DB010008FF
:10017000DB010008DB010008DB01000800000000D3
:10018000DB010008DB010008DB010008DB010008DF
:10019000DB010008DB010008DB010008DB010008CF
:1001A000DB010008DB010008DB010008DFF80CD0F0
:1001B00000F0A2F800480047D93C0008A810002031
:1001C0000648804706480047FEE7FEE7FEE7FEE7F1
:1001D000FEE7FEE7FEE7FEE7FEE7FEE7C11F0008D9
:1001E000AD0100082DE9F05F0546002092469B46D0
:1001F00088460646814640241BE02846414647463D
:10020000224600F069F853465A46C01A914110D36D
:1002100011461846224600F050F82D1A67EB0108E7
:100220004F4622460120002100F047F817EB000955
:100230004E41201EA4F10104DFDC484631462A4627
:100240004346BDE8F09F40EA01039B0703D009E065
:1002500008C9121F08C0042AFAD203E011F8013BB2
:1002600000F8013B521EF9D27047D2B201E000F80B
:10027000012B491EFBD270470022F6E710B513464A
:100280000A4604461946FFF7F0FF204610BD30B578
:100290000B46014600202022012409E021FA02F544
:1002A0009D4205D303FA02F5491B04FA02F52844DE
:1002B000151EA2F10102F1DC30BD202A04DB203A38
:1002C00000FA02F1002070479140C2F1200320FAA9
:1002D00003F3194390407047202A04DB203A21FAA7
:1002E00002F00021704721FA02F3D040C2F120024F
:1002F0009140084319467047064C074D06E0E068F8
:1003000040F0010394E8070098471034AC42F6D35C
:10031000FFF750FFB83F0008D83F000870B58C18B1
:1003200010F8015B15F0070301D110F8013B2A1109
:1003300006D110F8012B03E010F8016B01F8016BF6
:100340005B1EF9D12B0705D40023521E0DD401F8F2
:10035000013BFAE710F8013BCB1A921C03E013F8BB
:10036000015B01F8015B521EF9D5A142D8D30020F0
:1003700070BDFEE710B54FF0000C4FF6FF724AF269
:10038000010E5FFA8CF38B4224BF104610BD037838
:100390005A40002308E08EEA520412F0010F03F1E4
:1003A000010308BF54082246DCB2072CF3D90CF134
:1003B000010C0130E5E770B504466578AE1EF1B278
:1003C000FFF7D8FF6219A15D80B212F8012C41EA53
:1003D0000221401A18BF012070BD00207047002084
:1003E0007047000080B506484022D0F81812054832
:1003F000FFF729FF0448018840310180002080BDBB
:10040000180400206001002012000020704770478F
:10041000ED4A0329136823F4407313604FF44073CB
:1004200038BF0B0211680B2841EA03011160116803
:1004300021F0F801116088BF0430116841EAC00062
:1004400040F002001060106840F480301060704787
:100450001548016811F4007F0FD0016821F4007184
:100460000160016841F400610160016821F40061EC
:100470000160016841F400710160016811F4806F4E
:1004800008BF7047016821F480610160016841F490
:1004900080510160016821F480510160016841F4DC
:1004A00080610160704700BF003C0240C64A0329DA
:1004B000136823F44073136003D1116848F20403F6
:1004C00005E04FF40043012908BF042311681943D4
:1004D0001160116841EA002040F4803010607047DC
:1004E000B94A136823F440731360136813601368E8
:1004F00043F0010313600170704700BF10B5B24CA8
:10050000216821F440712160216841F4407121602B
:10051000216841F0010121600260BFF36F8F4360E9
:1005200010BD00BFA84A136823F44073136013681A
:1005300043F480731360136843F001031360018078
:10054000704700BFA04A136823F440731360136818
:1005500043F400731360136843F0010313600160F8
:10056000704700BF3748016811F0100F06D0954959
:10057000CA6942F01002CA6110210160016811F0DD
:10058000200F06D08F49CA6942F00802CA612021B3
:100590000160016811F0400F06D08A49CA6942F033
:1005A0000402CA6140210160016811F0800F06D089
:1005B0008449CA6942F00202CA618021016001686F
:1005C00011F4807F07D07F49CA6942F00102CA61F5
:1005D0004FF480710160016811F0020F08BF70478D
:1005E0007849CA6942F02002CA610221016070475D
:1005F000F8B5044673480021124EC16100F0CCF9F1
:100600000546671C306810F4803F09D0002FF9D0F0
:1006100024B100F0C1F9401BA042F3D903200EE041
:10062000306810F0010F1CBF01203060306810F4FA
:10063000F97F03D0FFF796FF012000E00020C0B251
:1006400001B0F0BD0C3C024080B509484FF0FF31CD
:10065000002201610261416142610160026041600A
:1006600042608160826000F0DBF9002080BD00BF45
:1006700010380240B0B5044600F08EF90546E64851
:10068000611C007818BF044400F086F9401BA042AA
:10069000FAD3B0BD2DE9F843DFF828810546894635
:1006A00098F81800012801D1022640E0012088F8BE
:1006B00018004CF25030FFF79BFF0646A6BB4FF0E8
:1006C000FF30414CC9F80000286801280ED1696844
:1006D000287CFFF7EBFE4CF25030FFF789FF06460F
:1006E000206848F20401884320601BE0A8680746A0
:1006F00010E0297C3846FFF78BFE4CF25030FFF7B4
:1007000077FF06462068002E20F0FA00206007D10F
:10071000A8680137E96808448742EAD3002601E067
:10072000C9F80070FFF794FE002088F818003046E2
:1007300001B0BDE8F08300BF2348016841F00041EB
:1007400001600020704700BF2DE9F041DFF87480A0
:1007500007461E4614460D4698F81800012804BFA7
:100760000220BDE8F081012088F818004CF25030DA
:10077000FFF73EFF08BB022F07D0012F0AD077B941
:10078000E1B22846FFF7ACFE0EE028462146FFF70F
:10079000D9FE09E0A1B22846FFF7C4FE04E02846CE
:1007A00022463346FFF7AAFE4CF25030FFF720FFF7
:1007B00005490A6822F001020A60002188F8181031
:1007C000BDE8F081840A0020103C02400648C16860
:1007D000B1F1FF3FC4BF00207047044901600449E4
:1007E0000160C068C00F7047043C024023016745A8
:1007F000AB89EFCD2DE9FC4F5D4A0A274FF0010A86
:100800004FF003094FF0000B4FF0000E002690420E
:10081000584A08BF092702444FEAB223092B38BFC0
:100820004FEAB2270097102E08BFBDE8FC8F0B6877
:100830000AFA06F52B4200F095804B68122B15D86A
:100840000AFA03F414F0061F10D0876809FA0EF4B0
:1008500027EA0404CF6807FA0EF73C438460C3F329
:1008600000144768B440AF433C434460C768D1F8C4
:1008700008C009FA0EF40CFA0EF2A7436FEA040C52
:100880003A43C26043F01002122A10D13D4C0BF0E3
:100890001C020F23934004EA560707443C6A24EAEB
:1008A00003030C6904FA02F21A433A624B680468C3
:1008B00003F0030213F0805F02FA0EF204EA0C0761
:1008C00042EA070202604DD000220BF00C070F2411
:1008D00001922B4ABC4013461A6842F480421A60C7
:1008E0001A68254B02F480429C46019226F00302CE
:1008F000019B6244244B984652F80830A343009C65
:1009000004FA07F73B4342F80830DCF800204F6850
:1009100042EA050317F4803F08BF22EA050317F4F3
:10092000003FCCF80030DCF8042042EA050308BFA1
:1009300022EA050317F4801FCCF80430DCF8082005
:1009400042EA050308BF22EA05030C4A17F4001F18
:10095000CCF808301446226842EA050308BF22EAB0
:10096000050323600BF1040B0EF1020E01365AE76A
:10097000002402400000FEBF003C01400C3C01404E
:1009800044380240FCFFFF7F08FCFFFF002A08BF3D
:1009900009048161704700001F488068704700BFEC
:1009A0001D480178826811448160704780B50B480A
:1009B000016841F400710160016841F480610160E7
:1009C000016841F480710160032000F093F8002079
:1009D00000F006F800F026F8002080BD003C024040
:1009E00070B50D4E04464FF47A713078B1FBF0F0DB
:1009F0000A490968B1FBF0F001F05CF901250F2C00
:100A000008D838B94FF0FF3021460022002500F009
:100A100045F87460284670BD6C000020B8000020C6
:100A20007047000082B000200B4901904A6842F4F0
:100A300080424A604A6802F480420192019A009022
:100A4000086840F080500860086800F0805000900E
:100A5000009802B0704700BF4038024000280CDB0D
:100A600000F01F010122400902FA01F1034A42F895
:100A70002010BFF34F8FBFF36F8F704780E100E00E
:100A8000002808DB00F01F010122400902FA01F1F1
:100A9000014A42F82010704700E100E0B0B500F0D4
:100AA0000F031A4D124CB0F1FF3FA3F104032B4486
:100AB00003F10C03C8BF03192868C0F30220051D09
:100AC000C41E80F00700072D4FF0010538BF002439
:100AD000042828BF042005FA00F00138084005FA70
:100AE00004F10F31A0401140084300011870B0BD5F
:100AF00000E400E005494FF6FF030A681A4060F37E
:100B00000A22034810430860704700BF0CED00E064
:100B10000000FA0570470068416200207047D0F875
:100B200000C00029DCF824001BD080B5DCF8283098
:100B3000A1F1010E00EB1343002006E00CEB810154
:100B40000130D1F8041103EB1143C1B28E45F5D841
:100B50000CEB8E0043EA0241C0F80411BDE880406E
:100B600003E040EA0240CCF8280000207047000073
:100B7000114901220A70D0F8040401F046BD00BFFB
:100B8000C1EBC10200EB8202D0F80404926C01F0C8
:100B9000B9BCC1EBC10200EB8202D0F80404D2F868
:100BA000082201F000BD0000034900220A70D0F8BD
:100BB000040401F02CBD00BFA40A002010B50A46B1
:100BC000044602F00F0012F0800FC0EBC00104EBEE
:100BD000810303F13C0108BF03F5FE710870C2F305
:100BE000C010487094F8BC03012801D1022008E02D
:100BF000012084F8BC03206802F0B0F8002084F8DB
:100C0000BC03C0B210BDB0B504460A46616802F02C
:100C10000F00884201D901251FE0C0EBC00112F08E
:100C2000800F4FF0000504EB810303F13C0108BF86
:100C300003F5FE718D70C2F3C0124A70087094F80B
:100C4000BC03012801D1022507E0012084F8BC0380
:100C5000206802F06BFA84F8BC53E8B2B0BD70B5FE
:100C60000C46064604F00F0014F0800CC0EBC001E7
:100C700006EB810505F13C0108BF05F5FE71BCF1ED
:100C8000000F0870C4F3C0154D708A60CB7018BF98
:100C9000C880022B04BF0020087196F8BC0301280D
:100CA00001D1022008E0012086F8BC03306801F081
:100CB000A5FF002086F8BC03C0B270BD80B501F06E
:100CC0000F0CCCEBCC0100EB810E0021CEF80822FA
:100CD000CEE984318EF8FD118EF8FCC10EF5FE715F
:100CE0000369012B08BFCEF80C22DAB2BCF1000F69
:100CF000006802D002F04EFA01E002F073F9002021
:100D000080BDB0B5044601F00F0501206268954230
:100D10002AD8C1EBC10211F0800F04EB8203C5EBAE
:100D2000C50204EB820202F13C0208BF03F5FE7229
:100D30009070C1F3C0105070157094F8BC03012876
:100D400001D1022010E00120114684F8BC03206884
:100D500002F005FA2DB9217C206804F5717202F0C9
:100D6000B9F9002084F8BC03C0B2B0BD10B501F0E1
:100D70000F0C0024CCEBCC0100EB810E714601F886
:100D80003CCFCA60C1E9053401234B700369012BD4
:100D900008BFCEF84C20DAB2BCF1000F006802D0D8
:100DA00002F0F8F901E002F01DF9002010BD00008A
:100DB0002DE9F04F87B08146D9F80040204602F077
:100DC000FBFA10B107B0BDE8F08FD9F8000002F0CF
:100DD0001FFB0028F6D0D9F8000002F019FB0146ED
:100DE000D9F8000011F0020F1EBF416901F00201A5
:100DF000416102F00DFB0146D9F80000049411F0A6
:100E0000100F40D0816921F010018161246AC4F380
:100E1000434004F00F0506281DD002282CD147F6C8
:100E2000F070044028D0C5EBC50009EB8005D5F86B
:100E30000812C4F30F12049802F0EEFAD5F8080273
:100E4000D5F8141200EB1410C5F8080201EB1410C9
:100E5000C5F8140210E0049809F57171082202F037
:100E6000DBFAC5EBC50009EB8000D0F81412C4F31F
:100E70000A121144C0F81412D9F80000816941F037
:100E800010018161049C02F0C3FA10F4002F00F0FD
:100E9000C380D9F8000002F09AFA064609F571708D
:100EA00009F5057A00254FF430680690002E00F011
:100EB000B380F00700F08D805FFA85FBD9F8000061
:100EC000594602F09DFA074617F0010F48D004EB8F
:100ED000080001218160D9F8000008EB0001036CD3
:100EE0008A68D9F81040012C10D114071AD494063E
:100EF00033D4049C12F0280F32D1E64CA3426FD3B6
:100F000012F400426CD04FF4004027E0E14CFF3473
:100F1000A34212D1049C10040BD4900644BF20209D
:100F2000886015E0DB48049C834219D312F400402A
:100F300016D04FF40040886012E0049CB8F5306F82
:100F400006D1D9F8101219B9069A002102F0C2F898
:100F500048465946FFF71DFE02E020208860049CA9
:100F6000380723D504EB08000821CA4B8160D9F863
:100F70000010013B0A6C08EB010081689A4212D90B
:100F8000090444BF4FF400418160484600F023FB50
:100F9000D9F81000012809D1D9F80000069A0121DA
:100FA00002F098F802E0484600F015FBF80642BF50
:100FB00004EB080010218160B80642BF04EB080072
:100FC00020218160B80442BF04EB08004FF40051B7
:100FD00081600AF11C0A08F120087608013565E7EE
:100FE0005AE904230969B8F5306F6FF3DF41A2EBCA
:100FF0000101CAF8001003EB02014AF80C1C06D1EB
:10100000D9F8101219B9069A012102F063F848467E
:101010005946FFF7BEFDA2E7D9F8000002F0F8F943
:1010200010F4802F00F0B580D9F8000002F0C8F964
:10103000064609F5717004F51067002301900297C8
:10104000A4E0F00700F0A080D9F80000D9B2059321
:10105000069102F0C3F9054615F0010F29D0059B52
:101060000122D4F8341803F00F0002FA00F021EA4C
:101070000000C4F8340807EB43108260D9F8100070
:10108000012812D1C3EBC300002B09EB8000D0E98B
:1010900011121144816408D1D9F8500028B9D9F847
:1010A0000000019A012102F015F806994846FFF761
:1010B00067FD059B280742BF07EB431008218160AD
:1010C000E80642BF07EB431010218160680642BF6B
:1010D00007EB431040218160A80742BF07EB431094
:1010E0000221816028064FD5C3EBC30009EB800ABB
:1010F000D3465BF8500FD84658F8042F904243D39C
:101100005AF8441F841AD9F8005003964F468C426F
:101110000AF1040688BF0C4605EB431101F510697E
:1011200017E03C7CDAF8003031680094841A2846D5
:101130009C4288BF1C46069AA3B202F023FA30688C
:1011400020443060D8F800000219C8F80020DBF80D
:101150000000D9F81830E11C9BB2B3EB910F28BF07
:101160009042DED8B946DDE90276DDE904439042DB
:101170000AD803F00F00012101FA00F0D5F8341865
:1011800021EA0000C5F8340876080133002E7FF408
:1011900058AFD9F8000002F03BF9002802DBD9F87B
:1011A00000001AE0D4F8040820F00100C4F8040894
:1011B00099F8F403012807D10020002189F8F403ED
:1011C0004846FFF7A7FC02E0484600F0E7F9D9F8E7
:1011D0000000416901F00041416102F019F910F489
:1011E000006F02D1D9F800000DE0D4F8080810F023
:1011F000010F02D0484600F015FAD9F80000416905
:1012000001F40061416102F003F910F4805F02D142
:10121000D9F800005DE0D4F80408102120F00100A6
:10122000C4F80408D9F8000002F0A2F8D9F80420A4
:1012300004F5106104F500604FF67F3318E08B6011
:10124000013A0F6827F400170F600F6847F0006736
:101250000F60C1F80832D1F8007227F40017C1F806
:101260000072D1F8007247F00067C1F800722031B7
:10127000002AE4D1C16941F00111C161D9F83010EF
:1012800051B1D0F8841041F00B01C0F8841000F186
:10129000440108E00B30544F416942F22B021143E4
:1012A000416100F110010A6842F00B020A6009F581
:1012B0007172016821F4FE61016099F81010D9F88B
:1012C000000001F007FFD9F80000416901F48051E6
:1012D000416102F09DF80146D9F8000011F4005F69
:1012E0001AD001F0D3FCD9F8000002F057F8C9F881
:1012F0000C00D9F8005000F0E3FA99F80C200146F0
:10130000284602F0C7F8484600F038F9D9F800003E
:10131000416901F40051416102F07AF810F0080FC0
:1013200002D1D9F8000008E0484600F03BF9D9F8AE
:101330000000416901F00801416102F069F810F410
:10134000801F02D1D9F8000009E04846002100F0D2
:1013500040F8D9F80000416901F48011416102F0C0
:1013600057F810F4001F02D1D9F8000009E04846F0
:10137000002100F032F8D9F80000416901F40011B1
:10138000416102F045F810F0804F02D1D9F8000019
:1013900008E04846FFF7ECFBD9F80000416901F08E
:1013A0008041416102F034F810F0040F3FF40AADBF
:1013B000D9F8000050F8044F14F0040F05D0484647
:1013C000FFF7F2FBD9F80000043001682143016007
:1013D000F8E4D0F8040401F06AB9D0F8040401F08C
:1013E00068B92DE9F04F8BB00446002C00F08080E6
:1013F000256894F8BD0328B9002084F8BC03204672
:1014000000F086F8032084F8BD03E86B10F4807FB9
:1014100004BF00202061206801F0DEFD206804F197
:10142000040E04F11C0A0A909EE80E589AE8C007C0
:10143000D4E90C50CDE9085003A88DE8005880E8A5
:10144000C0070A9801F032FC00284ED12068002124
:10145000002501F0F7FF6168012000220FE0C3EBD7
:10146000C30704EB870787F83C2087F83D00A7F8FF
:10147000423087F83F50C7E911553D650132D3B27C
:101480009942ECD8002000220EE0C3EBC30304EB2A
:10149000830383F8FC2183F8FD0183F8FF01C3E98E
:1014A0008100C3F810020132D3B29942EDD8A0688E
:1014B00004F1140E04F1240A22680A90D4E90337D7
:1014C0009EE840589AE80007D4E90C50CDE908504E
:1014D00002A8CDE9007680E8005805A880E800075A
:1014E00010460A9A01F098FC38B1022084F8BD0336
:1014F000012528460BB0BDE8F08F0025012084F8B7
:10150000385084F8BD03206801F07AFCF1E7000050
:101510000068B0F1A04F18BF704710B586B0022028
:10152000002401A902904FF4C050019003200394BD
:1015300004900A2005900F48FFF75CF90E4800223E
:10154000016841F0800101600094016941F480412B
:1015500001610F21006900F4804000900098432051
:10156000FFF79CFA4320FFF78BFA06B0BDE8104066
:10157000704700BF000002403438024010B50446F6
:10158000E168D4F80404002918BF012101F0E9F84A
:10159000D4F80404BDE8104001F0B0B8D0F8040459
:1015A00001F0CBB8D0F8040401F0CDB810B5044672
:1015B00094F8BC03012801D102200AE0012084F83C
:1015C000381084F8BC03206801F053FF002084F831
:1015D000BC03C0B210BDD0F8042400F571711046F0
:1015E00001F0D2B810B5044694F8BC03012801D12B
:1015F000022015E00121206884F8BC13A16A0129AA
:1016000006D1A16901291EBF816B41F4803181633C
:1016100001F0EAFB206801F093FE002084F8BC038F
:10162000C0B210BD10B50446D4F8040401F0F8F8B7
:101630002068D0F8001E41F00101C0F8001E206AA9
:1016400020B10348016841F00601016010BD00BFF0
:1016500010ED00E02DE9F04104468846002C00F032
:101660008780934BD3F8000400F00F00404507D269
:1016700083F80084D3F8000400F00F00404577D1D0
:10168000206810F0020F11D0410742BF996841F461
:10169000E0519960010742BF996841F46041996047
:1016A0009968A26821F0F00111439960C0072DD01C
:1016B0006068811E022904D2196811F0007F0BD1E5
:1016C00056E0012804D1196811F4003F04D14FE01D
:1016D000196811F0020F4BD099681D4621F00301E3
:1016E00008439860FFF758F9064641F288372B46C1
:1016F0009868616800F00C00B0EB810F06D0FFF72E
:101700004BF9801BB842F2D9032032E0D3F8000431
:1017100000F00F00404507D983F80084D3F8000497
:1017200000F00F00404523D1206810F0040F05D0D1
:101730009968E26821F4E05111439960000706D5E9
:101740009868216920F4604040EAC10098601C4616
:1017500000F0D4F8A168084AC1F30311515CC840F5
:101760006349086055480068FFF73AF9002000E037
:101770000120C0B2BDE8F081A03F00082DE9F04192
:10178000FFF70AF94A4E0446306840F00100306025
:10179000306810F0020F05D1FFF7FEF8001B022899
:1017A000F6D94FE0306840F080003060FFF7F4F881
:1017B0000546002041F28838B060B768FFF7ECF8C2
:1017C000044617F00C0F03D0601B4045F5D939E0F3
:1017D000306820F4502030603768FFF7DDF80546A8
:1017E00017F4003F03D0281B6428F5D92AE030689D
:1017F00020F0807030603768FFF7CEF8044617F0AD
:10180000007F03D0601B0228F5D91BE0306820F070
:10181000806030603768FFF7BFF8054617F0006F4B
:1018200003D0281B0228F5D90CE0306820F0805046
:101830003060306810F0005F07D0FFF7ADF8401B54
:101840000228F6D90320BDE8F0811A4840497060AB
:101850001948C6F88400C6F88800F06820F4F850EB
:10186000F060F06820F40050F060F06820F48040F0
:10187000F060F06840F41F00F060F06840F4001081
:10188000F060F06840F48000F060706F20F00100BC
:101890007067706F40F0807070671548016007488E
:1018A0000068FFF79DF8002818BF0120BDE8F0810F
:1018B0000038024010300004003000247000002086
:1018C0000B480068704700BF09480A490A4A006887
:1018D0000968C1F38221515CC8407047044805493A
:1018E000054A00680968C1F34231515CC84070473D
:1018F000B800002008380240B03F000810B5EA4C9C
:10190000606800F00C00082804D0042814BF1048B8
:10191000104810BD226820680E49002310F4800F83
:1019200002F03F0204BF42F20041C0F2F40120681D
:10193000C0F38810A1FB0001FEF754FC21680222CD
:10194000C1F3014102EB4101B0FBF1F010BD00BF5A
:101950000024F40040787D012DE9F8430446002C72
:1019600000F055812078CF4ECF4FC007B14651D0FF
:10197000786800F00C00042807D1306810F4003FAC
:1019800048D06068002845D141E1786800F00C003B
:10199000082803D1386810F4800FEED16668B6F5D8
:1019A000803F09D0C846B6F5A02FD8F8000015D161
:1019B00040F48020C8F800004E46306840F4803083
:1019C0003060FEF7E9FF0546306810F4003F21D192
:1019D000FEF7E2FF401B6428F6D9BEE020F4803019
:1019E000C8F80000D8F8000020F48020C8F80000F3
:1019F000FEF7D2FF002E05464646E5D14E4630683A
:101A000010F4003F06D0FEF7C7FF411B03206429F6
:101A1000F4D9FDE0207880072FD5786810F00C0FFE
:101A200008D0786800F00C0008280BD1386810F452
:101A3000800F07D1306810F0020F17D0E06801283E
:101A400014D0E4E0E068002800F089809748012184
:101A50000160FEF7A1FF0546306810F0020F05D1C6
:101A6000FEF79AFF401B0228F6D976E0306821691C
:101A700020F0F80040EAC10030602078000722D54D
:101A800061698A4879B10121C0F8801EFEF784FFA0
:101A90000546386F10F0020F15D1FEF77DFF401B91
:101AA0000228F6D959E00021C0F8801EFEF774FF25
:101AB0000546386F10F0020F05D0FEF76DFF401B92
:101AC0000228F6D949E0207840077BD5F86B4FF023
:101AD000000810F0805F0CD1CDF800804FF00108B5
:101AE000F86B40F08050F863F86B00F08050009085
:101AF00000986F4E4846805910F4807F12D14946B5
:101B0000885940F480708851FEF746FF05464846E4
:101B1000805910F4807F05D1FEF73EFF401B02285C
:101B2000F5D91AE0A668012E05D0F86E052E29D148
:101B300040F00400F866F86E40F00100F866FEF729
:101B40002BFF054641F28836F86E10F0020F32D1B5
:101B5000FEF722FF401BB042F6D9032058E053485D
:101B600000210160FEF718FF05464846006810F0A6
:101B7000020F3FF482AFFEF70FFF411B0320022943
:101B8000F3D945E020F00100F866F86E20F004007B
:101B9000F866FEF701FF0546002ED3D141F28836E4
:101BA000F86E10F0020F06D0FEF7F6FE411B032080
:101BB000B142F5D92CE0B8F1000F1EBFF86B20F050
:101BC0008050F863A669002E69D0786800F00C0098
:101BD000082821D1012E1AD03868E16900F480026A
:101BE0008A4214D1216A00F03F028A420FD147F69F
:101BF000C071626A0140914209D1A16A00F4403289
:101C00008A4204D1E16A00F07060884247D0012026
:101C1000C0B201B0BDE8F0832449002088460866C0
:101C2000FEF7BAFE0546022E0BD14846006810F0BA
:101C3000007F12D0FEF7B0FE411B03200229F4D929
:101C4000E6E74846006810F0007F28D0FEF7A4FEC3
:101C5000411B03200229F4D9DAE704F11C064FCE18
:101C60000843D90340EA82104FF6FF72914340EADD
:101C70000660A1F58031084338600120C8F8600093
:101C8000FEF78AFE04464846006810F0007F06D141
:101C9000FEF782FE011B03200229F4D9B8E70020D9
:101CA000B6E700BF00380240043802400000474257
:101CB0000038FEFF411E0020B0EB116F1CBF012059
:101CC0007047084AF023516002490B700721906069
:101CD0001160704723ED00E00248016821F0020125
:101CE0000160704710E000E010B5044644B394F87A
:101CF000390028B9002084F83800204600F022F886
:101D0000242084F839002068C16821F40051C160A2
:101D1000204600F063F92068016921F490410161D7
:101D2000416921F02A014161C16841F40051C1605B
:101D300000202021E06384F8391084F83A1010BDA7
:101D4000012010BD10B586B0044601A81421FEF78D
:101D500093FA21681548814225D100215D4A00F59A
:101D600070400091536943F010035361536903F0CD
:101D700010030093009B0091116841F00101116074
:101D8000116801F0010100910099022102914FF4C4
:101D9000C061019101210391032104910721059163
:101DA00001A9FEF727FD06B010BD00BF00100140DD
:101DB000FEE700002DE9F04F89B000200022464CDC
:101DC000464E4FF0080808900390424804F58055AD
:101DD000016841F010010160016801F010010391F8
:101DE00003990392016841F080010160016801F0EC
:101DF0008001039103990392016841F001010160A0
:101E0000016801F00101039103990392016841F017
:101E100004010160016801F0040103910399039238
:101E20000022016841F0020101600821006800F011
:101E30000200039003982846B0472046C0210022A4
:101E4000B04704F5006B202100225846B04704F546
:101E500080600221002202270190B04704F5406013
:101E60004FF4805100220290B04704AEDFF870A01A
:101E7000CDF810804FF001084FF000092846314698
:101E8000CDE90587CDF81C90D047C0203146CDE97B
:101E900004082046CDE90679D04720203146CDE917
:101EA00004085846CDE90679D047CDE90478CDE954
:101EB0000679314600240198D0474FF48050CDF880
:101EC000148031460490CDE906740298D04709B0D9
:101ED000BDE8F08F30380240000002408D09000854
:101EE000F507000810B5094C09490022204600F00A
:101EF000D1FA0849204600F0C3FC0749204600F00B
:101F000050F92046BDE8104000F0CEBC1804002077
:101F10009C000020BC00002038010020FEE7704734
:101F20000148FEF745BF00BF3C06002070477047E0
:101F3000FEF736BDB0B592B000241F480225CDE9AA
:101F40000A44CDE908440194016841F080510160E0
:101F5000006800F0805001900198019417480168D2
:101F600041F440410160006800F440400190019854
:101F70004FF480300790012006904FF480000C95BC
:101F80000D9019200E904FF4A870CDE90F05072091
:101F9000119006A8FFF7E0FC0F200521CDE901050F
:101FA0004FF4A050039404904FF48050059001A882
:101FB000FFF750FB12B0B0BD403802400070004047
:101FC0000548D0F8801041F47001C0F880104FF03F
:101FD00000610160704700BF08ED00E0F8B50746FA
:101FE00049F20C6638680169FA6821F440511143DE
:101FF0000161B968D7E90423FC69C568114325EA82
:102000000606B4F5004F41EA030141EA040141EA42
:102010000601C1604169BA6921F4407141EA0201D7
:102020004161254940F4806004D1884207D1FFF71F
:1020300055FC06E088421FD1FFF750FC1EE0FFF779
:1020400043FC7B681921A0FB01015A00DB0FFEF75E
:10205000C9F864216FF06303B0FBF1F202FB0300E7
:10206000322303EBC000B0FBF1F14FF4F87000EA4B
:10207000410001F0070119E0FFF726FC7B681921F8
:10208000A0FB01019A009B0FFEF7ACF864216FF0F2
:102090006303B0FBF1F202FB0300322303EB0010F9
:1020A000B0FBF1F101F0F00001F00F0100EB0210C4
:1020B000084339688860F8BD00140140D0F8180260
:1020C000002180F8501000207047B0B50446D4E9D4
:1020D000865228786978D2689047204601212A469E
:1020E000402300F0FBFA0020B0BD10B5812104466A
:1020F00000F0F8F92046012100F0F4F9D4F81802B4
:1021000050B1D4F81C0280688047D4F8180201F05E
:10211000D7FE0020C4F81802002010BD10B5D0F87A
:102120001842E16C012908D1D0F81C0222786178AC
:10213000C368104698470020E064002010BD0000EE
:102140002921018000487047F40000200A21018005
:10215000004870472C01002070B5812103224023E4
:10216000044600F0A9FA204601210322402301255C
:1021700000F0A2FA542001F0CBFE0646002EC4F86F
:1021800018620CD0002586F85050D4F81C02406824
:102190008047204601213246402300F09FFA28461E
:1021A00070BD00291ABFC0F81C1200200220C0B266
:1021B000704794460A4690F8FC1103290ED1D0F8D6
:1021C000181291F850304BB980B5012381F8503086
:1021D0008121634600F02EFBBDE88040002070475F
:1021E00080B50A78D0F818C212F060020FD0202A09
:1021F00030D14A78023A092A2FD8DFE802F00526C2
:102200002E2E2E2E2E323A3E0CF144011FE04A783B
:102210000B2A13D00A2A15D0062A1BD14A8821235B
:10222000B3EB122F2DD0120A222A30D1CA88222ACB
:1022300028BF2222D0F81C12096809E08878CCF85F
:10224000480007E00CF1480101E00CF140010122D7
:1022500000F05CF80020C0B280BD00F034F802202D
:10226000F9E70122CCF84C208A79614600F036F873
:10227000F0E7C878CCF84400ECE78878CCF8400068
:10228000E8E7CA880349092A28BF0922E0E70022B3
:102290000021DDE72001002080B5D0F8142252682B
:1022A0009047002080BD80B513460A46002100F00B
:1022B00015FA002080BD80B513460A46002100F0C3
:1022C000B9FA002080BD10B58021044600F088FADC
:1022D00020460021BDE8104000F082BA80B51346C8
:1022E0000A460321C0F8F4110021C0E9423300F08E
:1022F000F5F9002080BD80B5052100220023C0F83B
:10230000F411002100F0EAF9002080BD80B51346E9
:102310000A460221C0F8F4110021C0E9063300F09A
:1023200089FA002080BD80B5042100220023C0F876
:10233000F411002100F07EFA002080BD10B5044C9D
:102340000A4604A0214600F077F8204610BD00BFE1
:1023500018020020437573746F6D20484944204370
:102360006F6E6669670000001220088000487047A1
:102370004801002010B5044C0A4604A0214600F094
:102380005BF8204610BD00BF18020020437573742F
:102390006F6D2048494420496E74657266616365BB
:1023A0000000000004200880004870475C01002005
:1023B00010B5044C0A4604A0214600F03DF8204622
:1023C00010BD00BF18020020526F626F4B654A6952
:1023D0000000000010B5044C0A4604A0214600F09D
:1023E0002BF8204610BD00BF18020020424C41438C
:1023F0004B2D4354524C20437573746F6D204875B8
:102400006D616E20696E74657266616365000000BF
:1024100010B5044C0A4604A0214600F00DF82046F1
:1024200010BD00BF18020020303030303030303066
:10243000303031410000000080B550B34FF0000C47
:10244000864603E00EF1010E0CF1010C9EF80030FF
:10245000002BF7D15FFA8CFC4FF0020E0EEB4C0C08
:10246000A2F800C081F800C04FF0030C01220AE07E
:102470005FFA8EF301304FF0000CCA540EF10203E4
:102480004EF001029E46D2B201F802C00278002A44
:10249000EED180BD98B1D0F8143213B10023C0F84A
:1024A000143209B1C0F8101280B50121027080F811
:1024B000FC1100F0B7F80020BDE8804000E00220E9
:1024C000C0B2704780B5D0F82002FEF79CFB03280D
:1024D0008FBF0220C000DF4921FA00F098BFC0B2D0
:1024E00080BD00BF80B5D0F82002FEF767FB03284F
:1024F0008FBF0220C000D74921FA00F098BFC0B2B8
:1025000080BD00BFB0B5044659B1D4F81402426989
:10251000002A46D094F8FC01032842D12046904777
:102520003FE0D4F8F401022834D1D4E90710814205
:1025300008D9081A114683B2E06120461A46FFF70F
:10254000BAFE13E0A169814217D3B1FBF0F202FB9E
:10255000101090B9D4F8F80181420ED22046002123
:1025600000220025FFF7A7FEC4F8F85120460021FD
:102570000022002300F0B2F80CE0D4F81402C16885
:1025800029B194F8FC01032801D120468847204650
:10259000FFF7B1FE94F80002012804BF002084F880
:1025A00000020020B0BD10B5044651B1D4F81402A9
:1025B000826942B394F8FC01032824D12046904755
:1025C00021E0D4F8F40103281DD1D4E9431081425D
:1025D0000CD9091A8142C4F80C1138BF08461146BB
:1025E00083B220461A46FFF75EFE0CE0D4F81402D0
:1025F000016929B194F8FC01032801D120468847DC
:102600002046FFF790FE002010BD0020704780B5E7
:10261000012180F8FC11D0F814220179526890470A
:10262000002080BD017861BB10B517494FF0A04272
:10263000C1F80404C0F820120420C1E900200220DF
:102640000022C1E90302C1E905200846C1E90722C9
:102650004A62C1E90B22FEF7C4FE08B1FDF7D7FEBE
:10266000094C80212046FEF756FA204600214022E0
:10267000FEF755FA204601218022FEF750FABDE808
:1026800010400020704700BF3C06002001F07F0290
:10269000D0F8200211F0800FC2EBC20200EB8200E2
:1026A00000F13E0208BF00F5FF721078704700206D
:1026B000704700207047000080B59446D0F8200293
:1026C0001A466346FEF7CBFA03288FBF0220C000EC
:1026D000604921FA00F098BFC0B280BD80B5D0F843
:1026E0002002FEF7EBFA03288FBF0220C0005949F1
:1026F00021FA00F098BFC0B280BD00BFB0B5002184
:102700000022402304464025FFF7D6FF20468021C3
:1027100000224023C4F81051FFF7CEFF01202562AC
:1027200084F8FC01D4F8180228B1D4F814022179F5
:102730004268204690470020B0BD90F8FD1180F817
:10274000FC110020704790F8FC11032907D1D0F844
:102750001412C96919B180B58847BDE880400020CE
:10276000704701740020704780B5D0F82002FEF752
:102770001DFF03288FBF0220C000364921FA00F058
:1027800098BFC0B280BD00BFB0B5044604F5027565
:10279000284600F061F8B4F80E120120C4E97D016A
:1027A00094F8080200F01F01022907D001290AD07D
:1027B00071B92046294600F07DF80EE020462946F2
:1027C00000F090F909E02046294600F0FAF904E00B
:1027D00000F08001204600F003F80020B0BD0000AA
:1027E00080B5D0F82002FEF78CFA03288FBF0220B4
:1027F000C000184921FA00F098BFC0B280BD00BFE8
:1028000080B5D0F82002FEF7EDFE03288FBF02202E
:10281000C000104921FA00F098BFC0B280BD00BFCF
:1028200090F8FC11042280F8FC2180F8FD110020B2
:102830007047000080B5D0F82002FEF797FA032811
:102840008FBF0220C000034921FA00F098BFC0B238
:1028500080BD00BF000201020A7802704A7842700F
:102860008A78CB7842EA032242800A794B7942EA9D
:10287000032282808A79C97942EA0121C1807047A6
:1028800000291ABFC0F8141200200220C0B27047FD
:10289000D0F8142232B180B512689047002818BFD2
:1028A000022080BD0220704780B5FFF7A9FF0020FD
:1028B00080BD0000BCB50D4604466878092800F2CA
:1028C000CE80DFE800F00518CC25CC5A7ACC36460D
:1028D00094F8FC0100F0FE00022840F0C080D4F81B
:1028E0000402032102220028204608BF0121E160E2
:1028F00004F10C01D8E094F8FC0100F0FE0002287D
:1029000040F0AD806888012840F0AC80002004E0F1
:102910006888012840F0A6800120C4F804022946F6
:10292000D4F814028268204690472046FFF7FBFC4B
:1029300098E0E888012840F0928094F8FC01032890
:1029400051D0022840F08B800020214641F8080F2A
:102950004AE06888624DC1B22870022980F07F8009
:1029600094F8FC01032842D0022840F07880002926
:10297000DBD0032084F8FC0144E0A888002840F064
:102980006E80E888002840F06A8094F8FC010328F3
:1029900000F06580688800F07F052046E9B284F881
:1029A000FE51FFF7E1FE2046FFF7BDFC0220002D9F
:1029B00008BF012084F8FC0154E068884FF0FF3123
:1029C00001EB102106294AD8DFE801F0043124493F
:1029D000493E4700D4F81012207C0A680DF1060128
:1029E0009047014653E0211D204601225CE000296A
:1029F0003BD0606888423FF498AFC1B22046FFF7F1
:102A00004BFC297820466160FFF742FF02287FF4E3
:102A10008CAF24E0C0B2052821D8DFE800F00348DD
:102A20004D52575CD4F81012207C4A68D6E7217CBE
:102A3000D4F81402002914BFC16A816A0DF106009E
:102A400088470146022021E0207C40B9D4F81402D6
:102A5000416B0DF106008847C3E7207C70B120462A
:102A6000FFF731FC002002B0B0BD00206060022002
:102A700084F8FC012046FFF70FFC56E7D4F8140257
:102A8000016B0DF106008847014607204870BDF82C
:102A900006000028E6D0EA88002AE3D0904238BF3A
:102AA00002462046ADF80620FFF730FCDAE7D4F8FE
:102AB0001012207C8A6891E7D4F81012207CCA6832
:102AC0008CE7D4F81012207C0A6987E7D4F810123A
:102AD000207C4A6982E7D4F81012207C8A697DE75D
:102AE0001402002070B50E460446307800F06000F5
:102AF000202807D1D4F81402314682682046904736
:102B0000002070BD7078357990B1012819D0032864
:102B1000F6D194F8FC01032817D1708868BB45F002
:102B20008000802829D020462946FFF759FE24E05E
:102B300094F8FC0103282AD0022811D168060AD192
:102B4000DEE794F8FC0103280ED0022808D145F0F6
:102B500080008028D4D020462946FFF741FECFE7E9
:102B60002046FFF7B0FBCBE770880028C8D1680685
:102B700009D020462946FFF7A5FCD4F814023146B7
:102B80008268204690472046FFF7CDFBB8E704F166
:102B9000140615F0800F2046294608BF04F58276FA
:102BA000FFF774FD002805F07F014FEA011218BFFE
:102BB000012006EB0111B05020460222FFF7A6FBD0
:102BC0009EE7B0B504460D4694F8FC01032810D1E9
:102BD000A88800F0FE0001280BD8D4F8140229467A
:102BE000826820469047E88830B92046FFF79BFB73
:102BF00002E02046FFF767FB0020B0BD80B591F8EA
:102C000000C091F801E001220CF00F03BEF1010FAA
:102C100002FA03F31BD1D0F81C281A434FEA4C13D5
:102C2000C0F81C2800F51060C25812F4004F28D1DB
:102C300091F803E089681A586FF3DF2141EA8C515B
:102C40001143114A41EA8E411143195019E0D0F85D
:102C50001C2842EA0342C0F81C284FEA4C1200F537
:102C60003060835813F4004F0BD191F803C089688A
:102C700013586FF3DF211943034B41EA8C41194389
:102C80001150002080BD00BF00800010D0F8001956
:102C900040F2FF729143C0F80019D0F8041841F4D3
:102CA0008071C0F8041800207047000070B5044619
:102CB0000698049D012817D1A16B194A0D9821F49B
:102CC00080310128A163E16801EA0201E160E16865
:102CD00021F44011E16002BFE06840F48010E06040
:102CE000204600F01FF80FE0E0680A9E40F0400028
:102CF000E060204600F016F8A16B002E21F480322F
:102D000008BF41F48032A263012D18BF70BDA168D5
:102D100041F00601A160A16841F02001A16070BDF1
:102D2000BFFFBDFFA8494FF0FF3201328A4212D8DF
:102D30000369B3F1FF3FF8DC026942F0010202616E
:102D40004FF0FF3201328A4205D8036913F0010FB8
:102D5000F8D1002000E00320C0B2704710B54A78D7
:102D60000B78204C00EB4311012A15D101F51062BC
:102D7000D1F80019B1F1FF3F07DC116841F00061A3
:102D80001160116841F08041116003F00F010123CF
:102D900003FA01F18BB215E001F53062D1F8001BA6
:102DA000B1F1FF3F07DC116841F00061116011686B
:102DB00041F08041116003F00F014FF4803304F1C2
:102DC00070748B40D0F83C189943C0F83C18D0F888
:102DD0001C189943C0F81C1810682040106000208F
:102DE00010BD00BF007833EC80B5D0F8041821F096
:102DF0000201C0F804180320FDF73CFC002080BD50
:102E000080B5D0F8041841F00201C0F8041803207E
:102E1000FDF730FC002080BD2DE9F84F8146119E62
:102E2000DDE90C07DDF828A00D464121002202E073
:102E300049F8212001315029FAD1002E0AD0D9F8C1
:102E4000381021F40011C9F83810D9F8381041F4BD
:102E5000002115E0D9F8041841F00201C9F804185E
:102E6000D9F8381041F40011C9F83810D9F83810E1
:102E700021F40021C9F83810D9F8381021F4802144
:102E8000C9F83810002109F500680128C9F8001EAA
:102E9000D8F80010C8F8001006D1D8F80000002BB0
:102EA00018BF40F0010003E0D8F8000040F0030034
:102EB000C8F800004FF484604349C9F810004FF08F
:102EC000FF300130884208D8D9F8102012F0200FC6
:102ED000F7D13C464FF0000B02E03C464FF0010BAF
:102EE000484600F033FA002109F510624FF67F33AF
:102EF0000026A446C8F81010C8F81410C8F81C1012
:102F00000EE0002E4FF0904706F1010608BF4FF08B
:102F10000067146807EAE477176011619360203254
:102F2000B542EED1002809F530604FF000014FF6B0
:102F30007F324FF0000318BF4FF0010B0EE0002B63
:102F40004FF0904703F1010308BF4FF00067066898
:102F500007EAE67707600161826020309D42EED18A
:102F6000D8F81000BAF1000F20F48070C8F81000F3
:102F70004FF00000C9F818001448C9F8140005D132
:102F8000D9F8180040F01000C9F81800D9F8180056
:102F90000F49BCF1000F40EA0100C9F818001EBF3C
:102FA000D9F8180040F00800C9F818001198012855
:102FB00005D1D9F8180007490843C9F81800584640
:102FC00001B0BDE8F08F00BF3F0D0300FFFFFFBF62
:102FD00000383C8004000040816821F001018160DC
:102FE0000020704770B54B7891F800C0012B21D1BB
:102FF00000EB4C14D1F814E0354D04F51063D4F80F
:103000001069324CBEF1000F39D035401D611D6989
:10301000254004F100541D618D68AE4584BF4D61AB
:10302000AE461D6904EA0E0445F400251D611D69C4
:103030002C432FE000EB4C10244CD0F8103B6FF3E6
:103040001203C0F8103BD0F8103B6FF3DC43C0F81C
:10305000103B00F530634E69886806B148611E690F
:10306000012A46F400261E6104F1005600EA06001B
:103070001E6940EA0600186112D1C8680EE02640B9
:103080004FF0000E1E611E6946F400261E611E6987
:1030900006EA0504012A1C6109D1086900B15861DA
:1030A0004FF00441186808431860002070BD19688B
:1030B000BEF1000F41F004411960F6D00CF00F0191
:1030C000012200F6340302FA01F1EBE7FFFF07E00B
:1030D0000000F8FF10B5036C134CA34203D3D0F8E3
:1030E000003B002B1EDB00230129C0F8103BD0F869
:1030F000103B43F40023C0F8103BD0F8103B43F0E2
:103100001803C0F8103BD0F8103B43F0C043C0F8A0
:10311000103B07D1C0F8142BD0F8001B41F08021E0
:10312000C0F8001B002010BD0B30544F4B780A78BC
:10313000012B4FEA421214BF00F5306000F5106019
:10314000835823F400138350C97801F0FE0102294B
:1031500002BF115841F080511150002070470A7889
:103160004978012900EB421119BF01F53060D1F80F
:10317000001B01F51060D1F800192AB1002903DB0A
:10318000016821F080410160016841F40011016093
:1031900000207047BCB54B7891F800C0012B2ED1B0
:1031A00000EB4C14D1F814E004F51063D4F8104986
:1031B000BEF1000F49D06FF312041C611C696FF35C
:1031C000DC441C618C680EEB0405013DB5FBF4F496
:1031D0005A4D05EAC4441D692C4375461C616FF3C2
:1031E000DF451C692C431C61CC78012C38D11C694B
:1031F00024F0C0441C611C6944F000542FE000EB33
:103200004C13D3F8105B03F5306C6FF31205C3F861
:10321000105BD3F8105B6FF3DC45C3F8105B4C69AF
:103220008B68002C4ED0E518444C013DB5FBF3F5FE
:1032300004EAC54EDCF81040ADB26B4344EA0E041C
:103240006FF3DF43CCF8104045E06FF3DC441C61C2
:103250001C6944F400241C611C696FF312041C6196
:10326000012A15D10A6902B15A61C97801290AD126
:10327000D0F808084FF0805121EA0050196800F199
:10328000805008431860186840F00440186044E01B
:103290001C6844F004441C60CC78012C40D1D0F868
:1032A00008484FF0805525EA04541D6804F1805405
:1032B0002C431C601FFA8EF3C9680092624600F02E
:1032C00061F92AE0DCF810506FF3DF432B43CCF8B0
:1032D00010304FF40023DCF81050012A43EA0503B4
:1032E000CCF8103003D1CA680AB1CCF81420C978E0
:1032F00001290CD1D0F808084FF0805121EA005084
:10330000DCF8001000F180500843CCF80000DCF835
:10331000000040F00440CCF80000002002B0B0BD36
:10332000BEF1000FF9D00CF00F01012202FA01F1F9
:10333000D0F834281143C0F83418EEE70000F81F25
:10334000816841F001018160002070471021124A1C
:1033500001614FF0FF310131914205D8036913F04B
:10336000100FF8D1002000E00320C0B2704700BF6A
:10337000202242EA8111084A01614FF0FF310131F8
:10338000914205D8036913F0200FF8D1002000E026
:103390000320C0B2704700BF3F0D0300D0F80808FB
:1033A00010F0060004BF0020704740F004010F2019
:1033B000062908BF02207047406900F001007047ED
:1033C000D0F81818D0F81C08084080B27047D0F820
:1033D0001818D0F81C080840000C7047D0F810C826
:1033E000D0F8343801F00F0200EB4110D0F8080992
:1033F00023FA02F2D201D2B242EA0C021040704724
:1034000000EB4111D1F8081BD0F8140808407047B0
:10341000416980690840704780B5094B03324FF419
:10342000805E134001EB030C930804E050F80E207B
:10343000013B41F8042B002BF8D1604680BD00BF52
:10344000FCFF0100C268012922F0C042C26003D023
:1034500069B94FF0804101E04FF0005180B5C2687A
:103460001143C1603220FDF705F9002080BD012025
:103470007047D0F8002822F4FE62C0F800284FF40C
:10348000FE6202EA0111D0F800281143C0F80018CA
:1034900000207047022A34D1284A294B0A449A4214
:1034A00002D24FF470512EE0264A274B0A449A422A
:1034B00002D24FF4605126E0244A254B0A449A4236
:1034C00002D24FF450511EE0224A234B0A449A4242
:1034D00002D24FF4405116E0204A214B0A449A424E
:1034E00002D24FF430510EE01E4A1F4B0A449A425A
:1034F00002D24FF4205106E01C4A1D4B0A449A4266
:103500000AD24FF41051C26822F47052C260C268ED
:103510001143C16000207047164A174B0A449A4273
:1035200002D24FF40051EEE7144A154B0A444FF40F
:10353000C0519A4238BF4FF4E051E4E7405327FFAF
:1035400000350C00401E1BFF40420F0000DC0BFF4B
:10355000804F1200808CF9FE20D6130060B6E5FE85
:1035600060E3160000D3CEFE40771B00C05BB3FEC5
:10357000C091210000CA91FE20753800E05459FE28
:10358000E09C4100DDF800C0BCF1000F0DD1033319
:103590004FEA023C00F580509B0804E051F8042BF0
:1035A000013B4CF80020002BF8D100207047FEE7CB
:1035B0002149884201D2002034E001F58042904246
:1035C00001D201202EE001F50042904201D20220FA
:1035D00028E001F54042904201D2032022E001F5AB
:1035E000E032904201D204201CE001F5703290429A
:1035F00001D2052016E001F5B822904201D2062042
:1036000010E001F5F822904201D207200AE001F50E
:103610001C22904201D2082004E001F53C22904295
:1036200002D20920C0B2704701F55C220B21904202
:1036300038BF0A21084670470040000800687047FC
:1036400005490A6812F0800FFBD048600A6812F042
:10365000400FFBD0704700BF001001402DE9F0473C
:1036600086B0F74C4FF00008CDF8008004EB8007DF
:10367000FDF7ACF84FF001094FF0020A01AD6E46BC
:1036800017E02046FFF7DAFF01300DD02046CDF8D5
:103690000480FFF78DFF03A981E801062846314623
:1036A000FCF7F8FF08B106E004344CF25030FCF7A8
:1036B0009FFFBC42E5D34CF25030FCF799FFFDF779
:1036C0003BF806B0BDE8F08770B50C460546B4F18E
:1036D000006F15D314F0030018BF70BD04EB820611
:1036E000FDF774F808E02A68022021460023FDF760
:1036F0002BF818B904350434B442F4D3FDF71CF8A0
:1037000070BD00002DE9F04FB1B0FEF7EBFB4FF4B8
:10371000FA70FCF7AFFF0DF1840BDFF830A5C84F4E
:10372000C84DDFF82485002600240BF10400019029
:103730000AF11C00029000200390A7E10220FCF790
:1037400099FF0AF120003C21FCF796FD554640F216
:10375000FF60042145F81C0F2846FCF70BFE8AF891
:103760002000000A2946402268714046FEF721FDEC
:103770000A20FCF77FFF0FF2F44000F0FFFBFCF79C
:1037800063FFFDF7FBFFFEF7A7FA4320FDF766F99D
:103790004FF0FF30FDF762F9786845F8040C38689F
:1037A00080F3088855F8040CA64D80474C466DE11F
:1037B0005FEA09604FF0000400F068810298594602
:1037C0004022FCF740FD5846FCF7F5FD00284C462A
:1037D00040F05C819DF886009DF88720BAF90610BC
:1037E00040EA0224621A012A40F0D580C007AAF8F4
:1037F00006405E464FF0000504A818BF3A309DF819
:103800008510A1F1060B01995A46FCF71CFD03989F
:103810001BFA80F0039020B20128C0F2C18014F09E
:10382000010100F0BD800398002104AC80B20FE0DC
:10383000DAF81030625804315D1CCAF81050DFF815
:10384000105445F82320DAF80C200132CAF80C2075
:103850008142EDD3DAF81000002103911D28C0F059
:10386000D480FDF799F84FF0FF30FDF7F7F84320CB
:10387000FDF7F4F8DAE90421DFF8D403FFF724FFB9
:103880004FF0FF30FDF7FCF84320FDF7F9F800207A
:10389000CAF81000DAF814007430CAF81400B4E062
:1038A0000120FCF7E7FE5846FCF785FD00240028C0
:1038B00040F0EC809DF886409DF8875044F2352119
:1038C00044EA05208842AAF804001BD3002003E044
:1038D0000AEB000101300E774028F9D1554640F23D
:1038E0001160042145F81C0F2846FCF743FD2871A0
:1038F000000A2946402268714046FEF75AFCD14D25
:103900000024C3E0E7A000F039FBBAF804004FF050
:103910003A0900FB09F1E6A000F008FABAF8040041
:1039200000FB09F08008FFF799FEE5A000F026FBF8
:103930004FF000094FF6FF7004218AF80090AAF8B2
:103940000600CAF814708AF81E408AF81F505546BF
:1039500040F2BB6025F81C0F2846FCF70BFD8AF8E7
:1039600020000021000ACAF80C90CAF810900391B8
:103970008AF8210004A87421FCF77EFC4046294601
:103980004022FEF716FCAF4D01247FE0CFA000F0EF
:10399000F5FA4C467AE0BAA000F0C8F94C4675E05A
:1039A000BAF8041004AC11F0010F2ED00139814295
:1039B0002BDC00200EE0DAF8102021580430531CD4
:1039C000CAF81030A24B43F82210DAF80C1001317B
:1039D000CAF80C105845EED34FF0FF30FDF73EF813
:1039E0004320FDF73BF8DAE904219948FFF76CFE24
:1039F0004FF0FF30FDF744F84320FDF741F8DAE9D6
:103A0000040101EB8000CAE90450BAF80410BAF9C5
:103A1000060055460139814216DDDD2005F81C0FF0
:103A200068782C18FE30C1B22846FCF7A3FC04F8D5
:103A3000020C000A6978294401F8010C22E000BF59
:103A4000000001080000F01FEE2005F81C0F9AF896
:103A50001D002C18FE30C1B22846FCF78BFC04F880
:103A6000020C000A40229AF81D10294401F8010CAA
:103A700040462946FEF79DFB01208AF8000086A0FB
:103A800000F07CFA6F4DB3464C46002698F8FC01D6
:103A9000A14603281ED0FCF7D7FDFDF76FFEFEF709
:103AA0001BF94FF0FF30FCF7D9FF38682840B0F120
:103AB000805F06D0386805F180510840B0F1005FA2
:103AC00008D17868CAF81800386880F30888DAF8EE
:103AD00018008047BAF80200402854D3AAF80260C0
:103AE0004022BAF8081008446449AAF80800584669
:103AF000FCF7A9FB9DF88400CC283FF459AEAA2816
:103B00003FF4CEAE22284C46C0D15846FCF753FCB9
:103B100000284C46BAD138682840B0F1805F07D001
:103B2000386805F180510840B0F1005F7FF42EAF96
:103B3000554640F23360042125F81C0F9DF886009D
:103B4000A8709DF88700E8702846FCF713FC2871E0
:103B5000000A2946402268714046FEF72AFB64208D
:103B6000FCF788FDFCF770FDFDF708FEFEF7B4F8E2
:103B70004FF0FF30FCF772FF786845F8040C3868A6
:103B800080F308880EE69AF800004C4600283FF4BF
:103B90007DAFDAF81000A0B14FF0FF30FCF75EFF08
:103BA0004320FCF75BFFDAE904212948FFF78CFD8D
:103BB0004FF0FF30FCF764FF4320FCF761FFCAF8C9
:103BC000106038682840B0F1805F3FF4B7AD3868C6
:103BD00005F180510840B0F1005F3FF4AFAD1DA08A
:103BE00000F0CCF94FF6FF7000247421AAF806000B
:103BF0001748AAF80440CAF80C40FCF73DFB04A89B
:103C00007421FCF739FB0220FCF734FD0AF1200097
:103C10003C21FCF731FB554640F21160042145F888
:103C20001C0F2846FCF7A6FB8AF82000000A29464C
:103C3000402268714046034DFEF7BBFA0A20FCF7AC
:103C400019FD78E50000F01F180400201000002086
:103C5000A0010020B7A2CBCDB4EDCEF3D0C5CFA24A
:103C6000B8F8C9CFCEBBBBFAC1CB0D00D7BCB1B839
:103C7000BDF8C8EB4150500D00000000600100206D
:103C8000BDD3CAD5B0FCB2BBCAC7C1ACD0F8B5C4AD
:103C90002C2025640D0A0000CAC7D7EEBAF3D2BBA8
:103CA000B0FC0D00B2C1B3FDC9C8C7F80D000000DB
:103CB000B9CCBCFEB4F3D0A13A25640D0A000000D3
:103CC000B2C1B3FDCDEAB3C90D0000004E554C4C56
:103CD000204150500D00000080B5FCF767FEFEF754
:103CE00029F9FEF767F800F003F8FFF70BFDFEE790
:103CF00080B50C480C4A4FF4E12100234FF00C0C26
:103D0000C0E90021C0E90233C0E9043CC0E9063340
:103D1000FDF7EAFF002814BFBDE8804080BDFCF736
:103D200076BB00BF440A0020001001400FB4054BD1
:103D300010B503A9044A029800F018F810BC5DF809
:103D400014FB0000413600080000002002E008C813
:103D5000121F08C1002AFAD170477047002001E005
:103D600001C1121F002AFBD1704700002DE9FF4F4F
:103D700089B09B460446002506E025280BD05A460C
:103D80000B999047641C6D1C20780028F5D10DB06C
:103D90002846BDE8F08F0027B8460122474900E0D9
:103DA000074314F8013F203B02FA03F00842F7D121
:103DB00020782E2819D114F8010F47F004072A287B
:103DC0000ED06FF02F022078A0F1300109290CD815
:103DD00008EB880102EB410100EB0108641CF2E7EB
:103DE0000A98641C50F8048B0A9020780028CED0E2
:103DF000642808D0692806D075281ED05A460B9929
:103E000090476D1C58E00A994FF00A0901C90A91C0
:103E1000002802DA40422D2102E0390504D52B2189
:103E20008DF82010012103E0F90704D02021F7E7E5
:103E30008A4608AE0DE00021FAE70A994FF00A0918
:103E400001C90A91F7E74946FCF721FA303106F833
:103E5000011D0028F7D1ADEB060000F1200978071D
:103E600001D44FF00108C84502DDA8EB090000E0CD
:103E700000208046002706E008A85A46C05D0B993E
:103E800090476D1C7F1C5745F6DB04E030205A46F6
:103E90000B9990476D1CB8F10001A8F10108F5DC01
:103EA00005E016F8010B5A460B9990476D1CB9F1C5
:103EB0000001A9F10109F4DC641C65E7092801008F
:103EC00010B5002821D0114B0022001F196803E013
:103ED000814203D80A4649680029F9D152B11368D2
:103EE000841A9C4204D1006818441060104602E015
:103EF000506000E0186039B102680B1A934203D198
:103F00000B681A4402604968416010BD040000203B
:103F1000F0B50B30154D20F007010024144A0FE0D6
:103F200003688B420BD38B4205D95E1A431847684E
:103F3000C3E9006700E04368136002C004E0021DAB
:103F400010680028ECD12046002802D1286808B16A
:103F50000020F0BD064A07481060074A121A22F0F6
:103F60000702C0E9002401202860D7E708000020EC
:103F700004000020AC0A0020A80C002010B5044664
:103F800001E0FFF75DFB14F8010B04490028F8D1AC
:103F9000BDE810400A20FFF753BB000000000020DE
:103FA00000000000000000000102030406070809E9
:103FB0000000000001020304E03F000800000020B0
:103FC000600100001C030008904000086001002010
:103FD000480F00005C3D00080000000000000000E9
:103FE00001160354FFFF3201721012061009FF0977
:103FF00001A1010901151326FF9F95407508810253
:104000000D249102C01369231B08A5041AB1041AD8
:10401000D5041311241B083D081A7504111324F448
:104020001359211408EB201B08E108411A1D081A36
:10403000BD101ACB04C11A411869041A4D041409A1
:10404000022913010125C032090433020315092195
:104050001101140122221607058103402D010705D5
:104060000107A91A31130A0632022A4018227814CD
:1040700020DF031B08DB041AE5044B12011C158327
:104080000450571D02010203250500040309040022
:04000005080001AD41
:00000001FF
